:020000040800F2
:100000000000022099590108415701084957010889
:1000100051570108595701086157010800000000B5
:10002000000000000000000000000000E1050108E1
:1000300069570108000000003108010855F900085F
:10004000E9590108E9590108E9590108E959010884
:10005000E9590108E9590108E9590108E959010874
:10006000E9590108E9590108E9590108E959010864
:10007000E9590108E9590108E9590108E959010854
:10008000E9590108E9590108E9590108E959010844
:10009000E9590108E9590108E9590108E959010834
:1000A000E9590108E9590108E9590108E959010824
:1000B000E9590108E9590108E9590108E959010814
:1000C000E9590108E9590108E9590108E959010804
:1000D000E9590108E9590108E9590108E9590108F4
:1000E000E9590108E9590108E9590108E9590108E4
:1000F000E959010879570108E9590108E959010846
:10010000E95901088D570108E9590108E959010821
:10011000E9590108E9590108E9590108E9590108B3
:10012000E9590108E9590108E9590108A1570108ED
:10013000E95901080000000000000000E959010829
:10014000E9590108E9590108E9590108B5570108B9
:10015000E9590108C9570108E9590108E959010895
:10016000E9590108E9590108E9590108E959010863
:10017000E9590108E95901080000000000000000E9
:08018000E9590108E9590108E1
:1001900010B5054C237833B9044B13B10448AFF3C1
:1001A00000800123237010BD5C01002000000000CE
:1001B000F018020808B5034B1BB103490348AFF31D
:1001C000008008BD0000000060010020F018020857
:1001D0007BB972B90029BEBF00204FF0004106E094
:1001E00008BF00281CBF6FF000414FF0FF3000F047
:1001F000D3B9ADF1080C6DE904CE002909DB002B61
:100200001ADB00F04DF8DDF804E0DDE9022304B06C
:100210007047404261EB4101002B1BDB00F040F8CE
:10022000DDF804E0DDE9022304B0404261EB410166
:10023000524263EB43037047524263EB430300F0C7
:100240002FF8DDF804E0DDE9022304B0404261EB61
:1002500041017047524263EB430300F021F8DDF89F
:1002600004E0DDE9022304B0524263EB430370472C
:1002700053B94AB9002908BF00281CBF4FF0FF310D
:100280004FF0FF3000F088B9ADF1080C6DE904CEF5
:1002900000F006F8DDF804E0DDE9022304B0704761
:1002A0002DE9F047089D0F4604468C46002B48D1A7
:1002B0008A42164661D9B2FA82F34BB1C3F12002E9
:1002C00001FA03FC20FA02F29E4042EA0C0C9C4028
:1002D0004FEA164EB7B2BCFBFEF1220C0EFB11CC5E
:1002E00042EA0C4201FB07F0904209D9B21801F131
:1002F000FF3C80F0EE80904240F2EB8002393244C5
:10030000121AA4B2B2FBFEF00EFB102244EA024421
:1003100000FB07F7A74209D9341900F1FF3280F03A
:10032000DA80A74240F2D7803444023840EA0140E4
:10033000E41B00211DB1DC400023C5E90043BDE8FA
:10034000F0878B4206D90DB1C5E9000100210846AE
:10035000BDE8F087B3FA83F1002948D1BB4202D34C
:10036000824200F20781841A67EB0302012094465F
:10037000002DE4D0C5E9004CE1E7002A00F09280AE
:10038000B2FA82F3002B40F0A8808A1A4FEA164E88
:100390001FFA86FC0121200CB2FBFEF70EFB172290
:1003A00040EA02420CFB07F0904207D9B21807F16D
:1003B000FF3802D2904200F2E2804746121AA4B2FD
:1003C000B2FBFEF00EFB102244EA02440CFB00FCE0
:1003D000A44507D9341900F1FF3202D2A44500F236
:1003E000CB801046A4EB0C0440EA0740A2E7C1F121
:1003F00020068B4022FA06FC4CEA030C07FA01F4B3
:1004000020FA06F3F7404FEA1C49234300FA01F8AB
:100410001FFA8CFEB7FBF9F01C0C09FB107744EABD
:10042000074400FB0EF7A74202FA01F20AD91CEBBF
:10043000040400F1FF3A80F09B80A74240F29880CC
:1004400002386444E41B9FB2B4FBF9F309FB134484
:1004500047EA044403FB0EFEA64509D91CEB04043D
:1004600003F1FF3780F08280A6457FD9023B6444C8
:1004700043EA0040A4EB0E04A0FB02E7BC42734633
:10048000B94663D360D05DB1B8EB030264EB0904F5
:1004900004FA06F622FA01F31E43CC40C5E90064D3
:1004A00000214CE76208480842EAC1710B0C43EA9C
:1004B00000438AB242EA0342B3FBF6F1E407B446D2
:1004C0003746B6461F23B0FBF6F0D21B41EA004187
:1004D00061E7614614E7104628E7C3F1200120FADE
:1004E00001F29E4027FA01F19F403A434FEA164E2F
:1004F0001FFA86FCB1FBFEF70EFB1710110C41EA48
:10050000004107FB0CF8884504FA03F43AD9711846
:1005100007F1FF3001D288451FD8A1EB0801B1FBDC
:10052000FEF808FB0CF70EFB181192B242EA0142EA
:10053000BA422FD2B21808F1FF31C6D2BA42C4D2A1
:10054000A8F102013244C0E7F0459CD2BEEB0203A1
:1005500067EB0C070138B94695E7A6EB080841445C
:10056000B81EB1FBFEF808FB0CF7DCE73B467FE763
:10057000504667E70846FBE63444023832E7023F5C
:1005800032441BE7A1EB08013846B1FBFEF808FB3B
:100590000CF7C8E7414698E7704700BF10F8012BF9
:1005A00011F8013B012A28BF9A42F7D0D01A7047B0
:1005B000034613F8012B002AFBD1181A01387047A3
:1005C00001F0FF01102A2BDB10F0070F08D010F804
:1005D000013B013A8B422DD010F0070F42B3F6D108
:1005E000F0B441EA012141EA014122F007047FF021
:1005F00000070023F0E80256083C85EA010586EA78
:10060000010685FA47F5A3FA87F586FA47F6A5FAB3
:1006100087F68EB9EED1F0BC01F0FF0102F00702BF
:1006200032B110F8013B013A83EA010313B1F8D16A
:100630000020704701387047002D06BF354603384B
:10064000073815F0010F07D1013015F4807F02BF84
:10065000013015F4C03F0130F0BC0138704700BFD5
:1006600080B400AF064BD3F88830054A43F47003DA
:10067000C2F8883000BFBD465DF8047B704700BFFC
:1006800000ED00E080B582B000AF78607B68002BA1
:1006900001D1012341E07B6893F83D30DBB2002BB0
:1006A00006D17B68002283F83C20786800F039F896
:1006B0007B68022283F83D207B681A687B680433DC
:1006C0001946104600F00AFC7B68012283F8462098
:1006D0007B68012283F83E207B68012283F83F205B
:1006E0007B68012283F840207B68012283F8412047
:1006F0007B68012283F842207B68012283F8432033
:100700007B68012283F844207B68012283F845201E
:100710007B68012283F83D20002318460837BD4638
:1007200080BD80B483B000AF786000BF0C37BD4699
:100730005DF8047B7047000080B485B000AF78603E
:100740007B6893F83D30DBB2012B01D001234EE0F2
:100750007B68022283F83D207B681B68DA687B682F
:100760001B6842F00102DA607B681B68234A9342EF
:1007700022D07B681B68B3F1804F1DD07B681B685B
:100780001F4A934218D07B681B681E4A934213D0BD
:100790007B681B681C4A93420ED07B681B681B4A0F
:1007A000934209D07B681B68194A934204D07B6846
:1007B0001B68184A934211D17B681B689B6803F041
:1007C0000703FB60FB68062B10D07B681B681A6868
:1007D0007B681B6842F001021A6007E07B681B68B7
:1007E0001A687B681B6842F001021A6000231846F1
:1007F0001437BD465DF8047B704700BF0000014020
:100800000004004000080040000C004000040140CB
:10081000004001400018004080B582B000AF786011
:100820007B68002B01D1012341E07B6893F83D30C8
:10083000DBB2002B06D17B68002283F83C2078686D
:1008400014F076FE7B68022283F83D207B681A68EC
:100850007B6804331946104600F040FB7B68012298
:1008600083F846207B68012283F83E207B680122C2
:1008700083F83F207B68012283F840207B680122B7
:1008800083F841207B68012283F842207B680122A3
:1008900083F843207B68012283F844207B6801228F
:1008A00083F845207B68012283F83D200023184609
:1008B0000837BD4680BD000080B584B000AF7860C9
:1008C00039603B68002B09D17B6893F83E30DBB27E
:1008D000012B14BF01230023DBB222E03B68042B71
:1008E00009D17B6893F83F30DBB2012B14BF0123A1
:1008F0000023DBB215E03B68082B09D17B6893F835
:100900004030DBB2012B14BF01230023DBB208E02F
:100910007B6893F84130DBB2012B14BF0123002325
:10092000DBB2002B01D001237CE03B68002B04D11B
:100930007B68022283F83E2013E03B68042B04D13D
:100940007B68022283F83F200BE03B68082B04D130
:100950007B68022283F8402003E07B68022283F850
:1009600041207B681B6801223968184600F00CFDA5
:100970007B681B682D4A934204D07B681B682C4A15
:10098000934201D1012300E00023002B07D07B68B4
:100990001B685A6C7B681B6842F400425A647B688F
:1009A0001B68224A934222D07B681B68B3F1804FB8
:1009B0001DD07B681B681F4A934218D07B681B6858
:1009C0001D4A934213D07B681B681C4A93420ED089
:1009D0007B681B68164A934209D07B681B68184ADB
:1009E000934204D07B681B68164A934211D17B68FE
:1009F0001B689B6803F00703FB60FB68062B10D0A5
:100A00007B681B681A687B681B6842F001021A60E9
:100A100007E07B681B681A687B681B6842F001026C
:100A20001A60002318461037BD4680BD0000014003
:100A3000000401400004004000080040000C004099
:100A4000004001400018004080B582B000AF7860DF
:100A500039607B681B6800223968184600F094FCF6
:100A60007B681B682E4A934204D07B681B682D4A22
:100A7000934201D1012300E00023002B17D07B68B3
:100A80001B681A6A41F211131340002B0FD17B68C7
:100A90001B681A6A40F244431340002B07D17B685D
:100AA0001B685A6C7B681B6822F400425A647B689E
:100AB0001B681A6A41F211131340002B0FD17B6897
:100AC0001B681A6A40F244431340002B07D17B682D
:100AD0001B681A687B681B6822F001021A603B6879
:100AE000002B04D17B68012283F83E2013E03B6891
:100AF000042B04D17B68012283F83F200BE03B6884
:100B0000082B04D17B68012283F8402003E07B6836
:100B1000012283F84120002318460837BD4680BDD6
:100B2000000001400004014080B584B000AF78604F
:100B30007B681B68DB68FB607B681B681B69BB60AC
:100B4000BB6803F00203002B20D0FB6803F0020314
:100B5000002B1BD07B681B686FF002021A617B6858
:100B600001221A777B681B689B6903F00303002B43
:100B700003D0786800F094F905E0786800F086F911
:100B8000786800F097F97B6800221A77BB6803F059
:100B90000403002B20D0FB6803F00403002B1BD0C0
:100BA0007B681B686FF004021A617B6802221A7767
:100BB0007B681B689B6903F44073002B03D0786843
:100BC00000F06EF905E0786800F060F9786800F0F0
:100BD00071F97B6800221A77BB6803F00803002BC9
:100BE00020D0FB6803F00803002B1BD07B681B6838
:100BF0006FF008021A617B6804221A777B681B6811
:100C0000DB6903F00303002B03D0786800F048F998
:100C100005E0786800F03AF9786800F04BF97B68F5
:100C200000221A77BB6803F01003002B20D0FB686A
:100C300003F01003002B1BD07B681B686FF01002C1
:100C40001A617B6808221A777B681B68DB6903F4EA
:100C50004073002B03D0786800F022F905E0786833
:100C600000F014F9786800F025F97B6800221A7703
:100C7000BB6803F00103002B0CD0FB6803F00103F9
:100C8000002B07D07B681B686FF001021A6178683F
:100C900013F0CEFEBB6803F08003002B0CD0FB6882
:100CA00003F08003002B07D07B681B686FF0800285
:100CB0001A61786800F014FCBB6803F04003002B55
:100CC0000CD0FB6803F04003002B07D07B681B6847
:100CD0006FF040021A61786800F0F6F8BB6803F024
:100CE0002003002B0CD0FB6803F02003002B07D05F
:100CF0007B681B686FF020021A61786800F0E6FBE1
:100D000000BF1037BD4680BD80B586B000AFF8602B
:100D1000B9607A600023FB75FB6893F83C30012BC7
:100D200001D10223AEE0FB68012283F83C207B68FE
:100D30000C2B00F29F8001A252F823F0710D0008E5
:100D4000750E0008750E0008750E0008B10D00083C
:100D5000750E0008750E0008750E0008F30D0008EA
:100D6000750E0008750E0008750E0008330E000899
:100D7000FB681B68B968184600F056F9FB681B68E9
:100D80009A69FB681B6842F008029A61FB681B685D
:100D90009A69FB681B6822F004029A61FB681B6871
:100DA0009969BB681A69FB681B680A439A6164E029
:100DB000FB681B68B968184600F0A6F9FB681B6859
:100DC0009A69FB681B6842F400629A61FB681B68C1
:100DD0009A69FB681B6822F480629A61FB681B6851
:100DE0009969BB681B691A02FB681B680A439A6110
:100DF00043E0FB681B68B968184600F0FBF9FB6824
:100E00001B68DA69FB681B6842F00802DA61FB685C
:100E10001B68DA69FB681B6822F00402DA61FB6870
:100E20001B68D969BB681A69FB681B680A43DA61E9
:100E300023E0FB681B68B968184600F04FFAFB68AE
:100E40001B68DA69FB681B6842F40062DA61FB68C0
:100E50001B68DA69FB681B6822F48062DA61FB6850
:100E60001B68D969BB681B691A02FB681B680A43C7
:100E7000DA6102E00123FB7500BFFB68002283F802
:100E80003C20FB7D18461837BD4680BD80B483B03A
:100E900000AF786000BF0C37BD465DF8047B70473B
:100EA00080B483B000AF786000BF0C37BD465DF8FA
:100EB000047B704780B483B000AF786000BF0C370C
:100EC000BD465DF8047B704780B483B000AF7860A6
:100ED00000BF0C37BD465DF8047B704780B485B019
:100EE00000AF786039607B681B68FB607B68434AB1
:100EF000934213D07B68B3F1804F0FD07B68404A98
:100F000093420BD07B683F4A934207D07B683E4AAE
:100F1000934203D07B683D4A934208D1FB6823F09B
:100F20007003FB603B685B68FA681343FB607B6897
:100F3000324A93422BD07B68B3F1804F27D07B6835
:100F40002F4A934223D07B682E4A93421FD07B685E
:100F50002D4A93421BD07B682C4A934217D07B6862
:100F60002B4A934213D07B682A4A93420FD07B6866
:100F7000294A93420BD07B68284A934207D07B686A
:100F8000274A934203D07B68264A934208D1FB68E4
:100F900023F44073FB603B68DB68FA681343FB6033
:100FA000FB6823F080023B685B691343FB603B688E
:100FB0009A687B68DA623B681A687B689A627B6829
:100FC0000E4A934203D07B68104A934203D13B6898
:100FD0001A697B681A637B681B6843F004027B68AC
:100FE0001A607B6801225A617B68FA681A6000BF48
:100FF0001437BD465DF8047B704700BF0000014018
:101000000004004000080040000C004000040140C3
:1010100000400140004401400048014000180040E9
:10102000001C00400020004080B487B000AF786012
:1010300039607B681B6A7B617B681B6A23F0010255
:101040007B681A627B685B683B617B689B69FB60BD
:10105000FB6823F07003FB60FB6823F00303FB6075
:101060003B681B68FA681343FB607B6923F002034B
:101070007B613B689B687A6913437B617B68204A8C
:10108000934203D07B681F4A93420CD17B6923F0C3
:1010900008037B613B68DB687A6913437B617B698A
:1010A00023F004037B617B68154A934203D07B687D
:1010B000144A934211D13B6923F480733B613B692D
:1010C00023F400733B613B685B693A6913433B61FE
:1010D0003B689B693A6913433B617B683A695A6094
:1010E0007B68FA689A613B685A687B685A637B68D8
:1010F0007A691A6200BF1C37BD465DF8047B7047F1
:10110000000001400004014080B487B000AF786067
:1011100039607B681B6A7B617B681B6A23F0100265
:101120007B681A627B685B683B617B689B69FB60DC
:10113000FB6823F4E043FB60FB6823F44073FB602F
:101140003B681B681B02FA681343FB607B6923F052
:1011500020037B613B689B681B017A6913437B61B9
:101160007B68224A934203D07B68214A93420DD187
:101170007B6923F080037B613B68DB681B017A6934
:1011800013437B617B6923F040037B617B68174AD3
:10119000934203D07B68164A934213D13B6923F4F0
:1011A00080633B613B6923F400633B613B685B699F
:1011B0009B003A6913433B613B689B699B003A691A
:1011C00013433B617B683A695A607B68FA689A61AD
:1011D0003B685A687B689A637B687A691A6200BFC9
:1011E0001C37BD465DF8047B704700BF000001401E
:1011F0000004014080B487B000AF786039607B683C
:101200001B6A7B617B681B6A23F480727B681A62AD
:101210007B685B683B617B68DB69FB60FB6823F094
:101220007003FB60FB6823F00303FB603B681B68F3
:10123000FA681343FB607B6923F400737B613B68AE
:101240009B681B027A6913437B617B68214A934246
:1012500003D07B68204A93420DD17B6923F400635D
:101260007B613B68DB681B027A6913437B617B69A6
:1012700023F480637B617B68164A934203D07B68CA
:10128000154A934213D13B6923F480533B613B6978
:1012900023F400533B613B685B691B013A691343CC
:1012A0003B613B689B691B013A6913433B617B6867
:1012B0003A695A607B68FA68DA613B685A687B6809
:1012C000DA637B687A691A6200BF1C37BD465DF835
:1012D000047B7047000001400004014080B487B0E7
:1012E00000AF786039607B681B6A3B617B681B6A72
:1012F00023F480527B681A627B685B687B617B6841
:10130000DB69FB60FB6823F4E043FB60FB6823F4CC
:101310004073FB603B681B681B02FA681343FB6069
:101320003B6923F400533B613B689B681B033A69AC
:1013300013433B617B68124A934203D07B68114A96
:10134000934209D17B6923F480437B613B685B69ED
:101350009B017A6913437B617B687A695A607B6879
:10136000FA68DA613B685A687B681A647B683A6994
:101370001A6200BF1C37BD465DF8047B704700BF92
:10138000000001400004014080B487B000AFF86065
:10139000B9607A60BB6803F01F03012202FA03F30D
:1013A0007B61FB681A6A7B69DB431A40FB681A623F
:1013B000FB681A6ABB6803F01F03796801FA03F33C
:1013C0001A43FB681A6200BF1C37BD465DF8047BF8
:1013D0007047000080B485B000AF786039607B68EA
:1013E00093F83C30012B01D102235AE07B680122A3
:1013F00083F83C207B68022283F83D207B681B68D1
:101400005B68FB607B681B689B68BB60FB6823F0C4
:101410007003FB603B681B68FA681343FB607B68E2
:101420001B68FA685A607B681B68214A934222D085
:101430007B681B68B3F1804F1DD07B681B681D4A19
:10144000934218D07B681B681B4A934213D07B6879
:101450001B681A4A93420ED07B681B68184A934255
:1014600009D07B681B68174A934204D07B681B68CD
:10147000154A93420CD1BB6823F08003BB603B68E4
:101480005B68BA681343BB607B681B68BA689A6084
:101490007B68012283F83D207B68002283F83C2092
:1014A000002318461437BD465DF8047B704700BF23
:1014B000000001400004004000080040000C004013
:1014C00000040140004001400018004080B483B097
:1014D00000AF786000BF0C37BD465DF8047B7047F5
:1014E00080B483B000AF786000BF0C37BD465DF8B4
:1014F000047B704780B586B002AF78607B68002BB4
:1015000001D1012301E17B681B68BB607B6893F814
:101510009534DBB2002B06D17B68002283F894243B
:10152000786812F0EFF87B68032283F89524BB6893
:10153000B3F1A04F02D17B6800229A717B681B68CF
:10154000184601F040FB7B6818687B681A7C8DF8B0
:10155000002004330ECB01F01FFA0346002B05D008
:101560007B68022283F895240123CEE07B681B6808
:101570000021184601F038FB0346002B05D07B689C
:10158000022283F895240123BFE00023FB734AE085
:10159000FA7B79681346DB0013449B000B44153338
:1015A00001221A70FA7B79681346DB0013449B0012
:1015B0000B441433FA7B1A70FA7BFB7B98B2796880
:1015C0001346DB0013449B000B442E3302461A8063
:1015D000FA7B79681346DB0013449B000B441833F5
:1015E00000221A70FA7B79681346DB0013449B00D3
:1015F0000B441C3300221A60FA7B79681346DB0027
:1016000013449B000B44203300221A60FA7B796854
:101610001346DB0013449B000B44243300221A6062
:10162000FB7B0133FB737B681B79FA7B9A42AFD358
:101630000023FB7344E0FA7B79681346DB00134414
:101640009B000B4403F2552300221A70FA7B796841
:101650001346DB0013449B000B4403F51573FA7B20
:101660001A70FA7B79681346DB0013449B000B4425
:1016700003F5167300221A70FA7B79681346DB00B3
:1016800013449B000B4403F5177300221A60FA7B86
:1016900079681346DB0013449B000B4403F5187371
:1016A00000221A60FA7B79681346DB0013449B0022
:1016B0000B4403F5197300221A60FB7B0133FB73A3
:1016C0007B681B79FA7B9A42B5D37B6818687B6884
:1016D0001A7C8DF8002004330ECB01F0D1FA0346BA
:1016E000002B05D07B68022283F8952401230CE0AF
:1016F0007B6800225A747B68012283F895247B68FA
:101700001B68184602F01BFB002318461037BD4625
:1017100080BD80B584B000AF78607B681B68FB60DB
:101720007B6893F89434012B01D1022322E07B687B
:10173000012283F89424FB68DB6803F04003002B4C
:1017400009D07B685B7B012B05D1FB689B6B43F465
:101750008032FB689A637B681B68184601F022FAA6
:101760007B681B68184602F0C9FA7B68002283F880
:101770009424002318461037BD4680BD90B58DB027
:1017800000AF78607B681B683B623B6AFB617B68EB
:101790001B68184602F087FB0346002B40F08C8440
:1017A0007B681B68184602F0EBFA0346002B00F03A
:1017B0008284FB6903F500639B681B0AC3F30D0277
:1017C0007B68C3F8D4247B681B68184602F0D8FAFB
:1017D000034603F00203022B07D17B681B685A699A
:1017E0007B681B6802F002025A617B681B6818461E
:1017F00002F0C6FA034603F01003102B61D17B6898
:101800001B689A697B681B6822F010029A613B6A28
:101810001B6ABB61BB6903F00F021346DB00134474
:101820009B0003F514737A68134404337B61BB692E
:1018300003F4F013B3F5802F24D1BA6947F6F0739F
:101840001340002B35D07B69D968BB691B099BB25B
:10185000C3F30A039BB21A46386A02F0FDF87B69AB
:10186000DA68BB691B09C3F30A031A447B69DA60AF
:101870007B695A69BB691B09C3F30A031A447B6974
:101880005A6116E0BB6903F4F013B3F5402F10D191
:101890007B6803F29C4308221946386A02F0DCF8A0
:1018A0007B695A69BB691B09C3F30A031A447B6944
:1018B0005A617B681B689A697B681B6842F010025A
:1018C0009A617B681B68184602F05AFA034603F4D3
:1018D0000023B3F5002F40F0A78000237B627B68D4
:1018E0001B68184602F05FFAB86299E0BB6A03F021
:1018F0000103002B00F08E807B681B687A6AD2B2ED
:101900001146184602F083FA38613B6903F001037F
:10191000002B0CD07B6A5A01FB69134403F530633A
:101920001A4601239360796A786800F0A3FE3B6948
:1019300003F00803002B0CD07B6A5A01FB691344A7
:1019400003F530631A4608239360796A786800F0DB
:1019500079FF3B6903F01003002B08D07B6A5A0122
:10196000FB69134403F530631A46102393603B6907
:1019700003F00203002B30D03B6A5B6903F0800365
:10198000802B09D1FB6903F500635B68FA6902F5F6
:10199000006243F4806353607A6A1346DB001344A9
:1019A0009B0003F514737A68134404337B617B69ED
:1019B000DB78012B08D17B690022DA707B6ADBB20D
:1019C0001946786811F0B2FF7B6A5A01FB6913442B
:1019D00003F530631A46022393603B6903F020034A
:1019E000002B08D07B6A5A01FB69134403F530636E
:1019F0001A46202393603B6903F40053002B09D05F
:101A00007B6A5A01FB69134403F530631A464FF4AD
:101A1000005393607B6A01337B62BB6A5B08BB62E5
:101A2000BB6A002B7FF462AF7B681B68184602F02C
:101A3000A7F9034603F48023B3F5802F40F0DB8041
:101A40007B681B68184602F0C8F9B86200237B6205
:101A5000CDE0BB6A03F00103002B00F0C2807B687D
:101A60001B687A6AD2B21146184602F0EEF9386164
:101A70003B6903F00103002B57D07B6A03F00F038F
:101A8000012202FA03F3FB60FB6903F500635A6B62
:101A9000FB68DB43F96901F5006113404B637B6A26
:101AA0005A01FB69134403F510631A46012393603E
:101AB0007B689B79012B32D179687A6A1346DB0007
:101AC00013449B000B442033196878687A6A1346E4
:101AD000DB0013449B0003441C331B6819447868E3
:101AE0007A6A1346DB0013449B00034420331960D9
:101AF0007B6A002B13D179687A6A1346DB001344A2
:101B00009B000B4424331B68002B08D17B681868AA
:101B10007B6803F29C431A46012102F0F5F97B6AC7
:101B2000DBB21946786811F07CFE3B6903F00803CC
:101B3000002B08D07B6A5A01FB69134403F510633C
:101B40001A46082393603B6903F01003002B08D06A
:101B50007B6A5A01FB69134403F510631A4610238C
:101B600093603B6903F04003002B08D07B6A5A0165
:101B7000FB69134403F510631A46402393603B69E5
:101B800003F00203002B23D0796A386A01F0DCF9F4
:101B90007A6A1346DB0013449B0010337A681344BF
:101BA00004337B617B69DB78012B08D17B690022E0
:101BB000DA707B6ADBB21946786811F0C9FE7B6A7D
:101BC0005A01FB69134403F510631A46022393601C
:101BD0003B6903F08003002B03D0796A786800F03A
:101BE000BDFC7B6A01337B62BB6A5B08BB62BB6A7C
:101BF000002B7FF42EAF7B681B68184602F0C0F8FC
:101C0000034603F00043B3F1004F22D1FB6903F513
:101C100000635B68FA6902F5006223F00103536018
:101C20007B6893F8CC34012B08D17B68002283F8C1
:101C3000CC240021786800F0A3FE02E0786811F05F
:101C400067FE7B681B685A697B681B6802F000426C
:101C50005A617B681B68184602F092F8034603F449
:101C60000063B3F5006F12D1FB6903F500639B6855
:101C700003F00103012B02D1786811F023FE7B6889
:101C80001B685A697B681B6802F400625A617B68B2
:101C90001B68184602F074F8034603F48053B3F54A
:101CA000805F40F0B780FB6903F500635B68FA6909
:101CB00002F5006223F0010353607B681B6810216A
:101CC000184601F041F90023FB6246E0FB6A5A0125
:101CD000FB69134403F510631A464FF67F33936094
:101CE000FB6A5A01FB69134403F510631B68FA6A27
:101CF0005101FA690A4402F5106223F400131360DB
:101D0000FB6A5A01FB69134403F530631A464FF628
:101D10007F339360FB6A5A01FB69134403F5306318
:101D20001B68FA6A5101FA690A4402F5306223F429
:101D300000131360FB6A5A01FB69134403F5306317
:101D40001B68FA6A5101FA690A4402F5306243F0ED
:101D500000631360FB6A0133FB627B681B791A46E0
:101D6000FB6A9342B2D3FB6903F50063DB69FA694E
:101D700002F5006243F00113D3617B68DB7B002B2B
:101D800016D0FB6903F50063D3F88430FA6902F5D5
:101D9000006243F00B03C2F88430FB6903F5006373
:101DA0005B6CFA6902F5006243F00B03536415E0C3
:101DB000FB6903F500635B69FA6902F5006243F4AD
:101DC000005343F02B035361FB6903F500631B6968
:101DD000FA6902F5006243F00B031361FB6903F536
:101DE00000631B68FA6902F5006223F4FE63136066
:101DF0007B6818687B6899797B6803F29C431A4674
:101E000002F082F87B681B685A697B681B6802F4E1
:101E100080525A617B681B68184601F0B1FF034687
:101E200003F40053B3F5005F23D17B681B681846A9
:101E300002F047F87B681B68184601F0FEF803467D
:101E40001A467B68DA717B681C6802F057FD014610
:101E50007B68DB791A46204600F002FE786811F0B4
:101E600008FD7B681B685A697B681B6802F4005296
:101E70005A617B681B68184601F082FF034603F035
:101E80000803082B0AD1786811F0E5FC7B681B6811
:101E90005A697B681B6802F008025A617B681B68FC
:101EA000184601F06DFF034603F08003802B23D119
:101EB0003B6A9B6923F080023B6A9A6101237B6243
:101EC00014E079687A6A1346DB0013449B000B44E4
:101ED00003F257231B78012B05D17B6ADBB219462D
:101EE000786800F00AFB7B6A01337B627B681B79B0
:101EF0001A467B6A9342E4D37B681B68184601F05C
:101F00003FFF034603F48013B3F5801F3CD1012348
:101F10007B622BE07B6A5A01FB69134403F5106373
:101F20001B68BB6179687A6A1346DB0013449B0027
:101F30000B4418331B78012B15D1BB69002B12DA27
:101F400079687A6A1346DB0013449B000B4417330D
:101F500001221A707B6ADBB263F07F03DBB21946A1
:101F6000786800F0CAFA7B6A01337B627B681B7970
:101F70001A467B6A9342CDD37B681B685A697B689B
:101F80001B6802F480125A617B681B68184601F0D6
:101F9000F7FE034603F40013B3F5001F56D10123E7
:101FA0007B6245E07B6A5A01FB69134403F53063A9
:101FB0001B68BB6179687A6A1346DB0013449B0097
:101FC0000B4403F516731B78012B2ED1BB69002B34
:101FD0002BDABB691A0C7B68D3F8D434534003F076
:101FE0000103002B21D179687A6A1346DB00134480
:101FF0009B000B4403F2572301221A703B6A9B6932
:1020000043F080023B6A9A613B6A5B6903F080039C
:10201000002B0AD1FB6903F500635B68FA6902F5DE
:10202000006243F40073536008E07B6A01337B6213
:102030007B681B791A467B6A9342B3D37B681B6823
:102040005A697B681B6802F400125A617B681B683E
:10205000184601F095FE034603F08043B3F1804F2C
:102060000AD1786811F086FC7B681B685A697B6826
:102070001B6802F080425A617B681B68184601F0B9
:102080007FFE034603F00403042B15D17B681B6815
:102090005B68BB61BB6903F00403002B02D0786866
:1020A00011F076FC7B681B6859687B681B68BA690D
:1020B0000A435A6000E000BF3437BD4690BD80B58A
:1020C00082B000AF78600B46FB707B6893F8943465
:1020D000012B01D1022312E07B68012283F89424B2
:1020E0007B68FA785A747B681B68FA781146184640
:1020F00001F0DEFD7B68002283F89424002318465B
:102100000837BD4680BD80B584B000AF7860084612
:1021100011461A460346FB700B463B801346BB70C4
:102120000023FB7297F90330002B0FDAFB7803F0E2
:102130000F021346DB0013449B0010337A681344EC
:102140000433FB60FB6801225A700FE0FB7803F058
:102150000F021346DB0013449B0003F514737A68E7
:1021600013440433FB60FB6800225A70FB7803F0D1
:102170000F03DAB2FB681A703B88C3F30A02FB68EC
:102180009A60FB68BA781A71FB685B78002B04D000
:10219000FB681B781A46FB685A83BB78022B02D176
:1021A000FB6800225A717B6893F89434012B01D1AB
:1021B00002230EE07B68012283F894247B681B686D
:1021C000F968184600F05EFF7B68002283F89424CB
:1021D000FB7A18461037BD4680BD80B584B000AF8D
:1021E00078600B46FB7097F90330002B0FDAFB7811
:1021F00003F00F021346DB0013449B0010337A6890
:1022000013440433FB60FB6801225A700FE0FB7833
:1022100003F00F021346DB0013449B0003F5147315
:102220007A6813440433FB60FB6800225A70FB7821
:1022300003F00F03DAB2FB681A707B6893F89434EA
:10224000012B01D102230EE07B68012283F8942444
:102250007B681B68F968184600F09CFF7B680022C9
:1022600083F89424002318461037BD4680BD80B5FE
:1022700086B000AFF8607A603B600B46FB72FB7A79
:1022800003F00F021346DB0013449B0003F51473A5
:10229000FA68134404337B617B697A68DA607B698E
:1022A0003A681A617B6900225A617B6900225A7080
:1022B000FB7A03F00F03DAB27B691A70FB689B7933
:1022C000012B02D17A687B69DA61FB681868FB68C8
:1022D0009B791A46796901F039F8002318461837B6
:1022E000BD4680BD80B483B000AF78600B46FB7004
:1022F000FB7803F00F0279681346DB0013449B0060
:102300000B4403F51A731B6818460C37BD465DF87D
:10231000047B704780B586B000AFF8607A603B60A0
:102320000B46FB72FB7A03F00F021346DB001344EB
:102330009B001033FA68134404337B617B697A682D
:10234000DA607B693A681A617B6900225A617B69AD
:1023500001225A70FB7A03F00F03DAB27B691A701C
:10236000FB689B79012B02D17A687B69DA61FB6893
:102370001868FB689B791A46796900F0E7FF00232B
:1023800018461837BD4680BD80B584B000AF786070
:102390000B46FB70FB7803F00F037A6812799342C7
:1023A00001D901234FE097F90330002B0FDAFB78B6
:1023B00003F00F021346DB0013449B0010337A68CE
:1023C00013440433FB60FB6801225A700DE0FA7875
:1023D0001346DB0013449B0003F514737A6813441F
:1023E0000433FB60FB6800225A70FB6801229A707C
:1023F000FB7803F00F03DAB2FB681A707B6893F87E
:102400009434012B01D102231DE07B68012283F863
:1024100094247B681B68F968184601F075FBFB780B
:1024200003F00F03002B09D17B6818687B6899794A
:102430007B6803F29C431A4601F066FD7B6800222C
:1024400083F89424002318461037BD4680BD80B51C
:1024500084B000AF78600B46FB70FB7803F00F038D
:102460007A681279934201D9012342E097F9033047
:10247000002B0FDAFB7803F00F021346DB00134446
:102480009B0010337A6813440433FB60FB6801221D
:102490005A700FE0FB7803F00F021346DB00134481
:1024A0009B0003F514737A6813440433FB60FB68E4
:1024B00000225A70FB6800229A70FB7803F00F0329
:1024C000DAB2FB681A707B6893F89434012B01D15F
:1024D00002230EE07B68012283F894247B681B684A
:1024E000F968184601F07EFB7B68002283F894248B
:1024F000002318461037BD4680BD80B584B000AFBC
:1025000078600B46FB7097F90330002B0CDAFB78F0
:1025100003F00F021346DB0013449B0010337A686C
:1025200013440433FB600CE0FB7803F00F02134606
:10253000DB0013449B0003F514737A6813440433DF
:10254000FB607B681B68F968184601F09DF903463B
:10255000FB72FB7A18461037BD4680BD80B58AB045
:1025600002AF786039607B681B687B617B693B6187
:102570003A681346DB0013449B0010337A68134417
:102580000433FB60FB685A69FB681B699A4201D9F6
:1025900001236BE0FB681A69FB685B69D31AFB6176
:1025A000FB689B68FA699A4202D9FB689B68FB61E9
:1025B000FB6903339B08BB612AE0FB681A69FB686F
:1025C0005B69D31AFB61FB689B68FA699A4202D97E
:1025D000FB689B68FB61FB6903339B08BB61FB687D
:1025E000D9683B68DAB2FB6998B27B689B79009343
:1025F0000346786901F0F2F9FB68DA68FB691A446E
:10260000FB68DA60FB685A69FB691A44FB685A6127
:102610003B685A013B69134403F510639B699BB205
:10262000BA699A4209D8FB685A69FB681B699A42E1
:1026300003D2FB681B69002BBFD1FB681A69FB68DA
:102640005B699A4211D83B6803F00F03012202FA3A
:1026500003F3BB603B6903F500635A6BBB68DB4364
:10266000396901F5006113404B6300231846203798
:10267000BD4680BD80B588B000AF786039607B68AA
:102680001B68FB61FB69BB61FB693C3304331B685E
:102690007B613B685A01BB69134403F530639B6857
:1026A0003B617B689B79012B7BD13B6903F008037D
:1026B000002B15D07B69614A934240F2B9803B6997
:1026C00003F40043002B00F0B3803B685A01BB6960
:1026D000134403F530631A464FF400439360A7E0B8
:1026E0003B6903F02003002B09D03B685A01BB690A
:1026F000134403F530631A462023936098E03B6946
:1027000003F02803002B40F093807B694B4A9342EF
:102710000FD93B6903F40043002B0AD03B685A01F0
:10272000BB69134403F530631A464FF400439360CA
:102730007EE03A681346DB0013449B0003F51473F4
:102740007A6813440433FB60FB681A6A3B685901DA
:10275000BB690B4403F530631B69C3F31203D21A40
:10276000FB685A613B68002B14D1FB681B69002B86
:1027700009D17B6818687B6803F29C431A460121E3
:1027800001F0C2FB06E0FB68DA68FB685B691A448B
:10279000FB68DA603B68DBB21946786811F026F80E
:1027A00046E07B69264A934224D13B6903F4004307
:1027B000002B0AD03B685A01BB69134403F5306310
:1027C0001A464FF40043936032E03B6903F0200364
:1027D000002B08D03B685A01BB69134403F53063F2
:1027E0001A46202393603B68DBB21946786810F0E4
:1027F000FDFF1DE03B68002B14D179683A68134651
:10280000DB0013449B000B4403F519731B68002B7A
:1028100008D17B6818687B6803F29C431A46002144
:1028200001F072FB3B68DBB21946786810F0DEFFFE
:10283000002318462037BD4680BD00BF0A30544FE4
:102840000A31544F80B586B000AF786039607B683C
:102850001B687B617B693B617B693C3304331B688C
:10286000FB603B685A013B69134403F530639B6886
:10287000BB60FB68154A93420ED9BB6803F4004362
:10288000002B09D03B685A013B69134403F53063C0
:102890001A464FF400439360786810F095FFFB6888
:1028A0000A4A93420CD97B689B79012B08D17B683B
:1028B00018687B6803F29C431A46012101F024FB4F
:1028C000002318461837BD4680BD00BF0A30544F5C
:1028D00080B485B000AF78600B46FB7013463B8038
:1028E0007B681B685B6ABB60FB78002B07D13B8869
:1028F00019047B681B68BA680A439A6228E07B68FF
:102900001B689B6A1B0CBA681344BB600023FB73F3
:102910000DE07B681A68FB7B40339B0013445B68C7
:102920001B0CBA681344BB60FB7B0133FB73FA7B5F
:10293000FB78013B9A42ECD33B8818047B6819680A
:10294000FB78013BBA68024340339B000B445A605A
:10295000002318461437BD465DF8047B704780B4E9
:1029600083B000AF78600B467B807B681B687A88F9
:102970005A62002318460C37BD465DF8047B704749
:1029800080B483B000AF78600B46FB7000BF0C379B
:10299000BD465DF8047B704784B080B584B000AF5D
:1029A000786007F11C0080E80E0097F82130012BB9
:1029B00023D17B689B6B23F480327B689A637B68AE
:1029C000DB6823F4840323F040037A68D3607B68D8
:1029D000DB6823F440127B68DA6097F82830012B1B
:1029E00005D17B68DB6843F480127B68DA60786825
:1029F00001F0E8FA0346FB731BE07B68DB6843F0F9
:102A000040027B68DA60786801F0DCFA0346FB7309
:102A100097F82530002B06D17B689B6B43F48032FE
:102A20007B689A6305E07B689B6B23F480327B684C
:102A30009A63BB7F012B0BD17B689B6843F0060236
:102A40007B689A607B689B6843F020027B689A6091
:102A5000FB7B18461037BD46BDE8804004B0704788
:102A600080B487B000AFF860B9601346FB71FB79A2
:102A7000022B65D1BB68414A934206D9BB68404AE4
:102A8000934202D20F237B6162E0BB683C4A9342CF
:102A900006D3BB683B4A934202D20E237B6157E0C8
:102AA000BB68384A934206D3BB68374A934202D286
:102AB0000D237B614CE0BB68334A934206D3BB686D
:102AC000324A934202D80C237B6141E0BB682F4A13
:102AD000934206D9BB682E4A934202D80B237B61EE
:102AE00036E0BB682A4A934206D9BB68294A93421A
:102AF00002D80A237B612BE0BB68264A934206D9A1
:102B0000BB68254A934202D209237B6120E0BB685F
:102B1000214A934206D3BB68204A934202D8082335
:102B20007B6115E0BB681D4A934206D9BB681C4A0D
:102B3000934202D207237B610AE006237B6107E010
:102B4000FB79002B02D109237B6101E009237B6122
:102B5000FB68DB6823F47052FB68DA60FB68DA68B4
:102B60007B699B0203F470531A43FB68DA6000230D
:102B700018461C37BD465DF8047B7047BFACD800D3
:102B8000C0E1E4000024F400807306019F491A01AB
:102B9000FF2C31013FA44C0100366E011FABA60192
:102BA0000048E80180B483B000AF78607B689B6820
:102BB00043F001027B689A60002318460C37BD463B
:102BC0005DF8047B704780B483B000AF78607B68A9
:102BD0009B6823F001027B689A60002318460C373B
:102BE000BD465DF8047B704780B584B000AF786067
:102BF0000B46FB700023FB607B68DB6823F0C04260
:102C00007B68DA60FB78012B15D17B68DB6843F0C9
:102C100000527B68DA600A2002F062FEFB680A3329
:102C2000FB60786801F03FF90346012B1ED0FB687A
:102C3000C72BF0D91AE0FB78002B15D17B68DB6835
:102C400043F080427B68DA600A2002F049FEFB68AC
:102C50000A33FB60786801F026F90346002B05D0A3
:102C6000FB68C72BF0D901E0012305E0FB68C82B06
:102C700001D1012300E0002318461037BD4680BD76
:102C800084B080B586B000AF786007F1240080E89A
:102C90000E000023FB757B68FB6000233B6109E0AD
:102CA0007A683B6940339B00134400225A603B69B9
:102CB00001333B613B690E2BF2D997F82E30002B84
:102CC0001CD1FB6803F500635B68FA6802F50062DB
:102CD00043F0020353607B689B6B43F400127B68F4
:102CE0009A637B689B6B23F400227B689A637B6802
:102CF0009B6B23F480227B689A630BE07B689B6B61
:102D000023F400127B689A637B689B6B43F4002278
:102D10007B689A63FB6803F560631A4600231360BF
:102D200097F82930012B0DD197F82730002B04D1CB
:102D30000021786800F068F908E00121786800F067
:102D400063F903E00321786800F05EF910217868E8
:102D500000F0FAF80346002B01D00123FB757868D8
:102D600000F024F90346002B01D00123FB75FB681A
:102D700003F500631A4600231361FB6803F5006343
:102D80001A4600235361FB6803F500631A460023CB
:102D9000D36100233B6143E03B695A01FB68134464
:102DA00003F510631B6803F00043B3F1004F18D123
:102DB0003B69002B0AD13B695A01FB68134403F5B8
:102DC00010631A464FF00063136013E03B695A0129
:102DD000FB68134403F510631A464FF090431360E9
:102DE00008E03B695A01FB68134403F510631A4677
:102DF000002313603B695A01FB68134403F5106319
:102E00001A46002313613B695A01FB68134403F51A
:102E100010631A464FF67F3393603B6901333B6181
:102E200097F824301A463B699342B5D300233B619F
:102E300043E03B695A01FB68134403F530631B68A8
:102E400003F00043B3F1004F18D13B69002B0AD1C6
:102E50003B695A01FB68134403F530631A464FF08F
:102E60000063136013E03B695A01FB68134403F5E8
:102E700030631A464FF09043136008E03B695A01F3
:102E8000FB68134403F530631A46002313603B6963
:102E90005A01FB68134403F530631A46002313619B
:102EA0003B695A01FB68134403F530631A464FF639
:102EB0007F3393603B6901333B6197F824301A46B6
:102EC0003B699342B5D3FB6803F500631B69FA685D
:102ED00002F5006223F4807313617B6800229A611B
:102EE0007B686FF080425A6197F82630002B05D13D
:102EF0007B689B6943F010027B689A617B689A69E2
:102F0000104B13437A68936197F82A30002B05D051
:102F10007B689B6943F008027B689A6197F82E30C2
:102F2000012B07D17B689B6943F0804343F0040386
:102F30007A689361FB7D18461837BD46BDE880402E
:102F400004B0704700383C8080B485B000AF786032
:102F500039600023FB60FB680133FB60FB68B3F161
:102F6000706F01D903231BE07B681B69002BF2DA29
:102F70000023FB603B689B0143F020027B681A61E1
:102F8000FB680133FB60FB68B3F1706F01D9032369
:102F900006E07B681B6903F02003202BF0D00023A0
:102FA00018461437BD465DF8047B704780B485B081
:102FB00000AF78600023FB60FB680133FB60FB68B7
:102FC000B3F1706F01D9032318E07B681B69002BF4
:102FD000F2DA0023FB607B6810221A61FB68013380
:102FE000FB60FB68B3F1706F01D9032306E07B68D7
:102FF0001B6903F01003102BF0D000231846143780
:10300000BD465DF8047B704780B485B000AF786042
:103010000B46FB707B68FB60FB6803F500631A6876
:10302000FB78F96801F5006113430B600023184633
:103030001437BD465DF8047B704780B487B000AF9D
:1030400078607B683B613B6903F500639B6803F034
:103050000603FB60FB68002B02D10023FB750AE02E
:10306000FB68022B02D0FB68062B02D10223FB7502
:1030700001E00F23FB75FB7D18461C37BD465DF84C
:10308000047B704780B485B000AF786039607B689E
:10309000FB603B681B78BB603B685B78012B3AD1D7
:1030A000FB6803F50063DA693B681B7803F00F03E4
:1030B000012101FA03F39BB2F96801F500611343A2
:1030C000CB61BB685A01FB68134403F510631B68AE
:1030D00003F40043002B55D1BB685A01FB6813442D
:1030E00003F510631A683B689B68C3F30A013B68E9
:1030F0001B799B041943BB689B050B431343BA68B8
:103100005101FA680A4402F5106243F0805343F417
:103110000043136036E0FB6803F50063DA693B683F
:103120001B7803F00F03012101FA03F31B04F96874
:1031300001F500611343CB61BB685A01FB6813447E
:1031400003F530631B6803F40043002B1AD1BB68FE
:103150005A01FB68134403F530631A683B689B68A7
:10316000C3F30A013B681B799B040B431343BA6802
:103170005101FA680A4402F5306243F0805343F487
:1031800000431360002318461437BD465DF8047BE6
:103190007047000080B485B000AF786039607B680C
:1031A000FB603B681B78BB603B685B78012B61D19F
:1031B000BB685A01FB68134403F510631B6803F0F6
:1031C0000043B3F1004F1FD1BB685A01FB681344A1
:1031D00003F510631B68BA685101FA680A4402F5E6
:1031E000106243F000631360BB685A01FB6813442C
:1031F00003F510631B68BA685101FA680A4402F5C6
:10320000106243F080431360FB6803F50063DA6BE0
:103210003B681B7803F00F03012101FA03F39BB213
:10322000DB43F96801F500611340CB63FB6803F5EC
:103230000063DA693B681B7803F00F03012101FA90
:1032400003F39BB2DB43F96801F500611340CB61E6
:10325000BB685A01FB68134403F510631A68BB6826
:103260005901FB680B4403F510631946354B1340B5
:103270000B6060E0BB685A01FB68134403F53063E0
:103280001B6803F00043B3F1004F1FD1BB685A0124
:10329000FB68134403F530631B68BA685101FA6890
:1032A0000A4402F5306243F000631360BB685A01C0
:1032B000FB68134403F530631B68BA685101FA6870
:1032C0000A4402F5306243F080431360FB6803F563
:1032D0000063DA6B3B681B7803F00F03012101FAEE
:1032E00003F31B04DB43F96801F500611340CB6372
:1032F000FB6803F50063DA693B681B7803F00F0392
:10330000012101FA03F31B04DB43F96801F50061B5
:103310001340CB61BB685A01FB68134403F530636B
:103320001A68BB685901FB680B4403F53063194602
:10333000054B13400B60002318461437BD465DF85B
:10334000047B7047007833EC0078F3EF80B58AB0E7
:1033500002AFF860B9601346FB71FB68FB61BB68A4
:103360001B78BB61BB685B78012B40F07F81BB6839
:103370001B69002B32D1BB695A01FB69134403F569
:1033800010631B69BA695101FA690A4402F51062B7
:1033900023F0FF5323F4C0131361BB695A01FB6987
:1033A000134403F510631B69BA695101FA690A44B1
:1033B00002F5106243F400231361BB695A01FB69F3
:1033C000134403F510631B69BA695101FA690A4491
:1033D00002F51062DB0CDB04136197E0BB695A0154
:1033E000FB69134403F510631B69BA695101FA695B
:1033F0000A4402F51062DB0CDB041361BB695A015D
:10340000FB69134403F510631B69BA695101FA693A
:103410000A4402F5106223F0FF5323F4C013136132
:10342000BB69002B1AD1BB681A69BB689B689A42BA
:1034300003D9BB689A68BB681A61BB695A01FB690A
:10344000134403F510631B69BA695101FA690A4410
:1034500002F5106243F40023136144E0BB681A696B
:10346000BB689B6813445A1EBB689B68B2FBF3F3AE
:10347000FB82BB695A01FB69134403F510631A69A7
:10348000FB8AD904A44B0B40B9694801F96901448E
:1034900001F5106113430B61BB681B79012B22D12D
:1034A000BB695A01FB69134403F510631B69BA69D0
:1034B0005101FA690A4402F5106223F0C043136116
:1034C000BB695A01FB69134403F510631A69FB8A4F
:1034D0005B0703F0C043B9694801F969014401F58C
:1034E000106113430B61BB695A01FB69134403F577
:1034F00010631A69BB681B69C3F31203B9694801F9
:10350000F969014401F5106113430B61FB79012B4B
:103510004BD1BB68DB69002B09D0BB695A01FB6941
:10352000134403F510631A46BB68DB695361BB683B
:103530001B79012B28D1FB6903F500639B6803F419
:103540008073002B10D1BB695A01FB69134403F54A
:1035500010631B68BA695101FA690A4402F51062E6
:1035600043F0005313600FE0BB695A01FB69134439
:1035700003F510631B68BA695101FA690A4402F540
:10358000106243F080531360BB695A01FB69134416
:1035900003F510631B68BA695101FA690A4402F520
:1035A000106243F00443136066E1BB695A01FB6992
:1035B000134403F510631B68BA695101FA690A44A0
:1035C00002F5106243F004431360BB681B79012BC2
:1035D00015D0BB681B69002B00F04E81FB6903F519
:1035E00000635A6BBB681B7803F00F03012101FADB
:1035F00003F3F96901F5006113434B633CE1FB6997
:1036000003F500639B6803F48073002B10D1BB6942
:103610005A01FB69134403F510631B68BA69510131
:10362000FA690A4402F5106243F0005313600FE098
:10363000BB695A01FB69134403F510631B68BA693F
:103640005101FA690A4402F5106243F08053136095
:10365000BB68D968BB681A78BB681B6998B2FB79EC
:1036600000930346F86800F0B9F905E1BB695A0117
:10367000FB69134403F530631B69BA695101FA69A8
:103680000A4402F53062DB0CDB041361BB695A01AA
:10369000FB69134403F530631B69BA695101FA6988
:1036A0000A4402F5306223F0FF5323F4C013136180
:1036B000BB69002B32D1BB681B69002B03D0BB68F0
:1036C0009A68BB681A61BB689A68BB681A62BB6972
:1036D0005A01FB69134403F530631A69BB681B6A1E
:1036E000C3F31203B9694801F969014401F5306176
:1036F00013430B61BB695A01FB69134403F5306343
:103700001B69BA695101FA690A4402F5306243F44F
:103710000023136162E000BF0000F81FBB681B6953
:10372000002B23D1BB695A01FB69134403F53063B5
:103730001A69BB689B68C3F31203B9694801F96948
:10374000014401F5306113430B61BB695A01FB6908
:10375000134403F530631B69BA695101FA690A44DD
:1037600002F5306243F40023136137E0BB681A6945
:10377000BB689B6813445A1EBB689B68B2FBF3F39B
:10378000FB82BB689B68FA8A03FB02F2BB681A6281
:10379000BB695A01FB69134403F530631A69FB8A5C
:1037A000D904384B0B40B9694801F969014401F566
:1037B000306113430B61BB695A01FB69134403F584
:1037C00030631A69BB681B6AC3F31203B969480105
:1037D000F969014401F5306113430B61FB79012B59
:1037E0000DD1BB68DB68002B09D0BB68D968BB6909
:1037F0005A01FB69134403F530630A465A61BB68FA
:103800001B79012B28D1FB6903F500639B6803F446
:103810008073002B10D1BB695A01FB69134403F577
:1038200030631B68BA695101FA690A4402F53062D3
:1038300043F0005313600FE0BB695A01FB69134466
:1038400003F530631B68BA695101FA690A4402F54D
:10385000306243F080531360BB695A01FB69134423
:1038600003F530631B68BA695101FA690A4402F52D
:10387000306243F004431360002318462037BD46EE
:1038800080BD00BF0000F81F80B487B000AF786033
:1038900039600023FB600023FB757B683B613B685C
:1038A0005B78012B4AD13B681B785A013B69134472
:1038B00003F510631B6803F00043B3F1004F40F0C1
:1038C00086803B681B785A013B69134403F51063FB
:1038D0001B683A68127851013A690A4402F510628D
:1038E00043F0006313603B681B785A013B69134443
:1038F00003F510631B683A68127851013A690A446B
:1039000002F5106243F080431360FB680133FB60F3
:10391000FB6842F21072934202D90123FB7556E014
:103920003B681B785A013B69134403F510631B681D
:1039300003F00043B3F1004FE7D048E03B681B7849
:103940005A013B69134403F530631B6803F00043DD
:10395000B3F1004F3BD13B681B785A013B691344DC
:1039600003F530631B683A68127851013A690A44DA
:1039700002F5306243F0006313603B681B785A0124
:103980003B69134403F530631B683A6812785101B0
:103990003A690A4402F5306243F080431360FB68E1
:1039A0000133FB60FB6842F21072934202D901239B
:1039B000FB750CE03B681B785A013B69134403F527
:1039C00030631B6803F00043B3F1004FE7D0FB7D89
:1039D00018461C37BD465DF8047B704780B489B03B
:1039E00000AFF860B96011461A460B46FB711346EA
:1039F000BB80FB687B61BB68FB6197F82830002BBC
:103A000023D1BB8803339B083B610023BB6118E0D3
:103A1000FB791A037B69134403F580531A46FB694B
:103A20001B681360FB690133FB61FB690133FB61B8
:103A3000FB690133FB61FB690133FB61BB69013346
:103A4000BB61BA693B699A42E2D300231846243726
:103A5000BD465DF8047B704780B48BB000AFF86062
:103A6000B9601346FB80FB68BB61BB687B62FB8867
:103A70009B089BB27B61FB8803F00303FB8300235D
:103A80003B6214E0BB6903F580531A687B6A1A60D5
:103A90007B6A01337B627B6A01337B627B6A013321
:103AA0007B627B6A01337B623B6A01333B623A6A29
:103AB0007B699A42E6D3FB8B002B1ED000233B622E
:103AC000BB6903F580531A4607F1100312681A60A8
:103AD0003A693B6ADBB2DB0022FA03F3DAB27B6AB3
:103AE0001A703B6A01333B627B6A01337B62FB8B5A
:103AF000013BFB83FB8B002BEAD17B6A18462C37FA
:103B0000BD465DF8047B704780B485B000AF786037
:103B100039607B68FB603B681B78BB603B685B7807
:103B2000012B2CD1BB685A01FB68134403F51063C9
:103B30001B68002B12DBBB68002B0FD0BB685A013F
:103B4000FB68134403F510631B68BA685101FA68F7
:103B50000A4402F5106223F080431360BB685A01E7
:103B6000FB68134403F510631B68BA685101FA68D7
:103B70000A4402F5106243F4001313602BE0BB68A3
:103B80005A01FB68134403F530631B68002B12DBFA
:103B9000BB68002B0FD0BB685A01FB68134403F5C8
:103BA00030631B68BA685101FA680A4402F5306252
:103BB00023F080431360BB685A01FB68134403F58C
:103BC00030631B68BA685101FA680A4402F5306232
:103BD00043F400131360002318461437BD465DF804
:103BE000047B704780B485B000AF786039607B6833
:103BF000FB603B681B78BB603B685B78012B28D17E
:103C0000BB685A01FB68134403F510631B68BA686C
:103C10005101FA680A4402F5106223F4001313609C
:103C20003B681B79032B03D03B681B79022B38D1EF
:103C3000BB685A01FB68134403F510631B68BA683C
:103C40005101FA680A4402F5106243F08053136090
:103C500027E0BB685A01FB68134403F530631B6817
:103C6000BA685101FA680A4402F5306223F400137D
:103C700013603B681B79032B03D03B681B79022B35
:103C80000FD1BB685A01FB68134403F530631B680E
:103C9000BA685101FA680A4402F5306243F0805371
:103CA0001360002318461437BD465DF8047B704747
:103CB00080B485B000AF78600B46FB707B68FB601A
:103CC000FB6803F500631B68FA6802F5006223F4E1
:103CD000FE631360FB6803F500631A68FB781B0141
:103CE00003F4FE63F96801F5006113430B600023E0
:103CF00018461437BD465DF8047B704780B485B024
:103D000000AF78607B68FB60FB6803F560631B684D
:103D1000FA6802F5606223F003031360FB6803F5A1
:103D200000635B68FA6802F5006223F002035360E7
:103D3000002318461437BD465DF8047B704780B4F5
:103D400085B000AF78607B68FB60FB6803F560635B
:103D50001B68FA6802F5606223F003031360FB68D6
:103D600003F500635B68FA6802F5006243F0020342
:103D70005360002318461437BD465DF8047B704736
:103D800080B485B000AF78607B685B69FB607B685E
:103D90009B69FA681340FB60FB6818461437BD4600
:103DA0005DF8047B704780B485B000AF78607B68B5
:103DB000FB60FB6803F500639B69BB60FB6803F570
:103DC0000063DB69BA681340BB60BB681B0C184614
:103DD0001437BD465DF8047B704780B485B000AFF2
:103DE00078607B68FB60FB6803F500639B69BB60E0
:103DF000FB6803F50063DB69BA681340BB60BB680E
:103E00009BB218461437BD465DF8047B704780B4FA
:103E100085B000AF78600B46FB707B68FB60FB7879
:103E20005A01FB68134403F530639B68BB60FB6871
:103E300003F500635B69BA681340BB60BB68184652
:103E40001437BD465DF8047B704780B487B000AF7F
:103E500078600B46FB707B687B617B6903F50063D0
:103E60001B693B617B6903F500635B6BFB60FB785F
:103E700003F00F03FA6822FA03F3DB01DBB23A69BD
:103E800013433B61FB785A017B69134403F51063CC
:103E90009B683A691340BB60BB6818461C37BD4637
:103EA0005DF8047B704780B483B000AF78607B68B6
:103EB0005B6903F0010318460C37BD465DF8047BCF
:103EC000704780B485B000AF78607B68FB60FB68AA
:103ED00003F510631B68FA6802F5106223F4FF63B0
:103EE00023F007031360FB6803F500635B68FA685F
:103EF00002F5006243F480735360002318461437C0
:103F0000BD465DF8047B704780B487B000AFF860B1
:103F10000B467A60FB72FB687B61FB683C330433C1
:103F20001B683B613B69264A93420AD97B6903F5CA
:103F300030631B6803F00043B3F1004F01D100234D
:103F400037E07B6903F530631A46002313617B6910
:103F500003F530631B697A6902F5306243F400238C
:103F600013617B6903F530631B697A6902F530627E
:103F700043F0180313617B6903F530631B697A69A9
:103F800002F5306243F0C0431361FB7A012B0FD17D
:103F90007B6903F530631A467B6853617B6903F5DF
:103FA00030631B687A6902F5306243F08023136046
:103FB000002318461C37BD465DF8047B704700BFE0
:103FC0000A30544F80B485B000AF78600023FB60A6
:103FD000FB680133FB60FB68B3F1706F01D9032309
:103FE00022E07B681B69002BF2DA0A23FB6002E007
:103FF000FB68013BFB60FB68002BF9D17B681B6908
:1040000043F001027B681A61FB680133FB60FB68C7
:10401000B3F1706F01D9032306E07B681B6903F0DD
:104020000103012BF0D0002318461437BD465DF87C
:10403000047B704780B586B000AF78607B68002B4A
:1040400001D1012367E27B681B6803F00103002BA9
:1040500075D0884B9B6803F00C03042B0CD0854B68
:104060009B6803F00C03082B12D1824B5B6803F4AE
:104070008003B3F5800F0BD17E4B1B6803F4003334
:10408000002B5BD07B685B68002B57D1012342E299
:104090007B685B68B3F5803F06D1764B1B68754A39
:1040A00043F4803313601DE07B685B68B3F5A02F99
:1040B0000CD1704B1B686F4A43F4802313606D4B27
:1040C0001B686C4A43F4803313600BE0694B1B6838
:1040D000684A23F480331360664B1B68654A23F4F7
:1040E000802313607B685B68002B13D001F0ECFB2E
:1040F000386108E001F0E8FB02463B69D31A642B03
:1041000001D9032307E25B4B1B6803F40033002B48
:10411000F0D014E001F0D8FB386108E001F0D4FBE6
:1041200002463B69D31A642B01D90323F3E1514BB7
:104130001B6803F40033002BF0D100E000BF7B6864
:104140001B6803F00203002B63D04A4B9B6803F00B
:104150000C03002B0BD0474B9B6803F00C03082B80
:104160001CD1444B5B6803F48003002B16D1414BF8
:104170001B6803F00203002B05D07B68DB68012B72
:1041800001D00123C7E13B4B1B6823F0F8027B6899
:104190001B69DB00374913430B603AE07B68DB683F
:1041A000002B20D0344B01221A6001F08DFB3861C6
:1041B00008E001F089FB02463B69D31A022B01D9C2
:1041C0000323A8E12B4B1B6803F00203002BF0D064
:1041D000284B1B6823F0F8027B681B69DB0025492C
:1041E00013430B6015E0244B00221A6001F06CFBB6
:1041F000386108E001F068FB02463B69D31A022BE4
:1042000001D9032387E11B4B1B6803F00203002B3A
:10421000F0D17B681B6803F00803002B36D07B6865
:104220005B69002B16D0154B01221A6001F04CFB84
:10423000386108E001F048FB02463B69D31A022BC3
:1042400001D9032367E10B4B5B6F03F00203002BE3
:10425000F0D01BE0094B00221A6001F035FB3861F9
:104260000EE001F031FB02463B69D31A022B07D95D
:10427000032350E10038024000004742800E4742CD
:10428000884B5B6F03F00203002BEAD17B681B684D
:1042900003F00403002B00F097800023FB75814B93
:1042A0001B6C03F08053002B0FD10023BB607D4BB0
:1042B0001B6C7C4A43F0805313647A4B1B6C03F0F5
:1042C0008053BB60BB680123FB75774B1B6803F40D
:1042D0008073002B18D1744B1B68734A43F48073AE
:1042E000136001F0F1FA386108E001F0EDFA0246DE
:1042F0003B69D31A022B01D903230CE16A4B1B68DB
:1043000003F48073002BF0D07B689B68012B06D1EF
:10431000644B1B6F634A43F0010313671CE07B6827
:104320009B68052B0CD15F4B1B6F5E4A43F0040367
:1043300013675C4B1B6F5B4A43F0010313670BE091
:10434000584B1B6F574A23F001031367554B1B6FE4
:10435000544A23F0040313677B689B68002B15D035
:1043600001F0B2FA38610AE001F0AEFA02463B69A8
:10437000D31A41F28832934201D90323CBE0494B4F
:104380001B6F03F00203002BEED014E001F09CFA47
:1043900038610AE001F098FA02463B69D31A41F20B
:1043A0008832934201D90323B5E03E4B1B6F03F0E3
:1043B0000203002BEED1FB7D012B05D1394B1B6C89
:1043C000384A23F0805313647B689B69002B00F00C
:1043D000A180344B9B6803F00C03082B5CD07B68F6
:1043E0009B69022B41D1314B00221A6001F06CFA1B
:1043F000386108E001F068FA02463B69D31A022BE3
:1044000001D9032387E0274B1B6803F00073002BBF
:10441000F0D17B68DA697B681B6A1A437B685B6A48
:104420009B011A437B689B6A5B08013B1B041A4390
:104430007B68DB6A1B061B4913434B601B4B012245
:104440001A6001F041FA386108E001F03DFA0246D5
:104450003B69D31A022B01D903235CE0114B1B6883
:1044600003F00073002BF0D054E0104B00221A60D0
:1044700001F02AFA386108E001F026FA02463B69A9
:10448000D31A022B01D9032345E0064B1B6803F026
:104490000073002BF0D13DE07B689B69012B07D1B5
:1044A000012338E0003802400070004060004742BD
:1044B0001B4B5B68FB607B689B69012B28D0FB680A
:1044C00003F480027B68DB699A4221D1FB6803F028
:1044D0003F027B681B6A9A421AD1FA6847F6C0739A
:1044E00013407A68526A9201934211D1FB6803F437
:1044F00040327B689B6A5B08013B1B049A4207D1F0
:10450000FB6803F070627B68DB6A1B069A4201D08D
:10451000012300E0002318461837BD4680BD00BFC8
:104520000038024080B584B000AF786039607B68A5
:10453000002B01D10123CCE0684B1B6803F007037B
:104540003A689A420CD9654B3A68D2B21A70634BFA
:104550001B6803F007033A689A4201D00123B8E0D0
:104560007B681B6803F00203002B20D07B681B686C
:1045700003F00403002B05D0594B9B68584A43F4C1
:10458000E05393607B681B6803F00803002B05D0A1
:10459000534B9B68524A43F460439360504B9B6873
:1045A00023F0F0027B689B684D4913438B607B6866
:1045B0001B6803F00103002B44D07B685B68012B70
:1045C00007D1474B1B6803F40033002B19D101239B
:1045D0007FE07B685B68022B03D07B685B68032B02
:1045E00007D13F4B1B6803F00073002B09D1012357
:1045F0006FE03B4B1B6803F00203002B01D101234A
:1046000067E0374B9B6823F003027B685B683449A3
:1046100013438B6001F058F9F8600AE001F054F997
:104620000246FB68D31A41F28832934201D9032330
:104630004FE02B4B9B6803F00C027B685B689B0090
:104640009A42EBD1254B1B6803F007033A689A4264
:104650000CD2224B3A68D2B21A70204B1B6803F07E
:1046600007033A689A4201D0012332E07B681B6855
:1046700003F00403002B08D0194B9B6823F4E0528D
:104680007B68DB68164913438B607B681B6803F00B
:104690000803002B09D0124B9B6823F460427B680F
:1046A0001B69DB000E4913438B6000F021F80246C2
:1046B0000B4B9B681B0903F00F030A49CB5C22FAE2
:1046C00003F3094A1360094B1B68184611F0B2F84E
:1046D000002318461037BD4680BD00BF003C024095
:1046E0000038024020520208000000200400002090
:1046F0002DE9B04F94B000AF00237B640023FB642E
:1047000000233B640023BB64794B9B6803F00C03DC
:10471000082B0DD0082B00F2E180002B02D0042BD7
:1047200003D0DBE0734BBB64DBE0734BBB64D8E0CE
:104730006F4B5B6803F03F037B646D4B5B6803F476
:104740008003002B63D06A4B5B689B090022BB632C
:10475000FA63BB6BC3F308033B6300237B63D7E9B6
:104760000C4522462B464FF000004FF00001590146
:1047700041EAD261500102460B462146511A396185
:10478000294663EB01037B614FF000024FF0000309
:10479000D7E904AB59468B01514643EA9163514630
:1047A0008A015146B2EB0108594663EB01094FF00B
:1047B00000024FF000034FEAC90343EA58734FEA7F
:1047C000C80290469946234618EB0303BB602B466C
:1047D00049EB0303FB604FF000024FF00003D7E901
:1047E000024529464B02214643EAD15321464A025B
:1047F000104619467B6C0022BB62FA62D7E90A2395
:10480000FBF736FD02460B461346FB6458E0384B77
:104810005B689B09002218461146C0F308033B62FF
:1048200000237B62D7E9088942464B464FF00000DF
:104830004FF00001590141EAD261500102460B4696
:104840004146B2EB010A494663EB010B4FF000020F
:104850004FF000034FEA8B1343EA9A634FEA8A1240
:10486000B2EB0A0463EB0B054FF000024FF00003BC
:10487000EB0043EA5473E20014461D464346E31836
:104880003B604B4645EB03037B604FF000024FF06B
:104890000003D7E9004529468B02214643EA91539C
:1048A00021468A02104619467B6C0022BB61FA61E0
:1048B000D7E90623FBF7DCFC02460B461346FB64F4
:1048C0000B4B5B681B0C03F0030301335B003B6481
:1048D000FA6C3B6CB2FBF3F3BB6402E0054BBB64C8
:1048E00000BFBB6C18465037BD46BDE8B08F00BF57
:1048F000003802400024F40000127A0080B400AFB7
:10490000034B1B681846BD465DF8047B704700BF2B
:104910000000002080B500AFFFF7F0FF0246054B16
:104920009B689B0A03F007030349CB5C22FA03F35D
:10493000184680BD003802403052020880B500AFF2
:10494000FFF7DCFF0246054B9B685B0B03F0070398
:104950000349CB5C22FA03F3184680BD00380240BD
:104960003052020880B483B000AF786039607B6851
:104970000F221A60124B9B6803F003027B685A6097
:104980000F4B9B6803F0F0027B689A600C4B9B68AE
:1049900003F4E0527B68DA60094B9B68DB0803F4A0
:1049A000E0527B681A61074B1B6803F007023B6803
:1049B0001A6000BF0C37BD465DF8047B704700BF2E
:1049C00000380240003C024080B489B000AF7860FB
:1049D000396000237B6100233B610023BB6100231E
:1049E000FB616BE10122FB6902FA03F37B613B6827
:1049F0001B687A6913403B613A697B699A4240F0CF
:104A00005A813B685B6803F00303012B05D03B68C8
:104A10005B6803F00303022B30D17B689B68BB61AA
:104A2000FB695B00032202FA03F3DB43BA6913401C
:104A3000BB613B68DA68FB695B0002FA03F3BA69A1
:104A40001343BB617B68BA699A607B685B68BB6132
:104A50000122FB6902FA03F3DB43BA691340BB612D
:104A60003B685B681B0903F00102FB6902FA03F370
:104A7000BA691343BB617B68BA695A603B685B687B
:104A800003F00303032B17D07B68DB68BB61FB6972
:104A90005B00032202FA03F3DB43BA691340BB61F4
:104AA0003B689A68FB695B0002FA03F3BA69134337
:104AB000BB617B68BA69DA603B685B6803F003033B
:104AC000022B23D1FB69DA087B68083253F82230C5
:104AD000BB61FB6903F007039B000F2202FA03F39B
:104AE000DB43BA691340BB613B681A69FB6903F099
:104AF00007039B0002FA03F3BA691343BB61FB6926
:104B0000DA087B680832B96943F822107B681B68B1
:104B1000BB61FB695B00032202FA03F3DB43BA6962
:104B20001340BB613B685B6803F00302FB695B00F9
:104B300002FA03F3BA691343BB617B68BA691A606E
:104B40003B685B6803F44033002B00F0B480002323
:104B5000FB60604B5B6C5F4A43F4804353645D4B86
:104B60005B6C03F48043FB60FB685B4AFB699B085A
:104B7000023352F82330BB61FB6903F003039B004F
:104B80000F2202FA03F3DB43BA691340BB617B686F
:104B9000524A93422BD07B68514A934225D07B687E
:104BA000504A93421FD07B684F4A934219D07B688A
:104BB0004E4A934213D07B684D4A93420DD07B6896
:104BC0004C4A934207D07B684B4A934201D107235A
:104BD0000EE008230CE006230AE0052308E0042386
:104BE00006E0032304E0022302E0012300E00023A7
:104BF000FA6902F0030292009340BA691343BB6161
:104C00003549FB699B080233BA6941F823203B4BC5
:104C10009B68BB613B69DB43BA691340BB613B687E
:104C20005B6803F48013002B03D0BA693B6913431C
:104C3000BB61324ABB699360304BDB68BB613B6947
:104C4000DB43BA691340BB613B685B6803F4001344
:104C5000002B03D0BA693B691343BB61274ABB6988
:104C6000D360264B5B68BB613B69DB43BA69134089
:104C7000BB613B685B6803F40033002B03D0BA6967
:104C80003B691343BB611D4ABB6953601B4B1B68E7
:104C9000BB613B69DB43BA691340BB613B685B683E
:104CA00003F48033002B03D0BA693B691343BB6123
:104CB000124ABB691360FB690133FB61FB690F2B6F
:104CC0007FF690AE00BF00BF2437BD465DF8047B81
:104CD000704700BF00380240003801400000024029
:104CE0000004024000080240000C02400010024094
:104CF0000014024000180240001C0240003C014029
:104D000080B487B000AF7860396000233B61002336
:104D1000FB600023BB6000237B61CDE001227B6947
:104D200002FA03F33B613A683B691340FB60FA689F
:104D30003B699A4240F0BD80654A7B699B0802331B
:104D400052F82330BB607B6903F003039B000F2202
:104D500002FA03F3BA681340BB607B685D4A934272
:104D60002BD07B685C4A934225D07B685B4A934298
:104D70001FD07B685A4A934219D07B68594A9342A4
:104D800013D07B68584A93420DD07B68574A9342B0
:104D900007D07B68564A934201D107230EE00823CF
:104DA0000CE006230AE0052308E0042306E00323C1
:104DB00004E0022302E0012300E000237A6902F00C
:104DC000030292009340BA689A4232D1494B1A6862
:104DD000FB68DB43474913400B60464B5A68FB684E
:104DE000DB43444913404B60424BDA68FB68DB43CA
:104DF00040491340CB603F4B9A68FB68DB433D4919
:104E000013408B607B6903F003039B000F2202FABF
:104E100003F3BB602E4A7B699B08023352F82310D0
:104E2000BB68DA432A487B699B080A40023340F892
:104E300023207B681A687B695B00032101FA03F376
:104E4000DB431A407B681A607B69DA087B680832AA
:104E500053F822107B6903F007039B000F2202FA2C
:104E600003F3DB437A69D20819407B68083243F8C0
:104E700022107B68DA687B695B00032101FA03F387
:104E8000DB431A407B68DA607B685A6801217B69E2
:104E900001FA03F3DB431A407B685A607B689A6827
:104EA0007B695B00032101FA03F3DB431A407B6853
:104EB0009A607B6901337B617B690F2B7FF62EAF94
:104EC00000BF00BF1C37BD465DF8047B704700BFC4
:104ED0000038014000000240000402400008024087
:104EE000000C024000100240001402400018024072
:104EF000001C0240003C014080B485B000AF7860E7
:104F00000B467B807B681A697B881340002B02D09C
:104F10000123FB7301E00023FB73FB7B184614376E
:104F2000BD465DF8047B704780B483B000AF786005
:104F30000B467B8013467B707B78002B03D07A88EE
:104F40007B689A6103E07B881A047B689A6100BFE2
:104F50000C37BD465DF8047B7047000080B586B015
:104F600000AF786000237B6100F0AEFC38617B68A5
:104F7000002B01D1012399E07B68022283F83520C0
:104F80007B68002283F834207B681B681A687B6882
:104F90001B6822F001021A600FE000F095FC024647
:104FA0003B69D31A052B08D97B6820225A657B6898
:104FB000032283F83520032378E07B681B681B6895
:104FC00003F00103002BE8D17B681B681B687B6141
:104FD0007A69384B13407B617B685A687B689B68B1
:104FE0001A437B68DB681A437B681B691A437B683A
:104FF0005B691A437B689B691A437B68DB691A43C8
:105000007B681B6A13437A6913437B617B685B6A25
:10501000042B07D17B68DA6A7B681B6B13437A69C0
:1050200013437B617B681B687A691A607B681B6825
:105030005B697B617B6923F007037B617B685B6A4B
:105040007A6913437B617B685B6A042B17D17B68A9
:105050009B6A7A6913437B617B68DB6A002B0ED005
:10506000786800F09DFA0346002B08D07B68402248
:105070005A657B68012283F83520012316E07B689E
:105080001B687A695A61786800F054FA0346FB603D
:105090007B68DB6D3F229A40FB689A607B68002248
:1050A0005A657B68012283F835200023184618379B
:1050B000BD4680BD3F8010F080B586B000AFF8607F
:1050C000B9607A603B600023FB75FB689B6D3B61B8
:1050D000FB6893F83430012B01D1022340E0FB68D8
:1050E000012283F83420FB6893F83530DBB2012BC2
:1050F0002FD1FB68022283F83520FB6800225A6515
:105100003B687A68B968F86800F0E6F9FB68DB6D1F
:105110003F229A403B699A60FB681B681A68FB68EB
:105120001B6842F016021A60FB681B6C002B07D04C
:10513000FB681B681A68FB681B6842F008021A606B
:10514000FB681B681A68FB681B6842F001021A6062
:1051500005E0FB68002283F834200223FB75FB7D09
:1051600018461837BD4680BD80B483B000AF786064
:105170007B6893F83530DBB2022B04D07B68802249
:105180005A6501230CE07B68052283F835207B6893
:105190001B681A687B681B6822F001021A600023F2
:1051A00018460C37BD465DF8047B704780B586B065
:1051B00000AF78600023BB608E4B1B688E4AA2FB59
:1051C00003239B0A7B617B689B6D3B613B691B688A
:1051D000FB607B68DB6D08229A40FB681340002B64
:1051E0001AD07B681B681B6803F00403002B13D0E4
:1051F0007B681B681A687B681B6822F004021A60CF
:105200007B68DB6D08229A403B699A607B685B6D26
:1052100043F001027B685A657B68DB6D01229A408E
:10522000FB681340002B12D07B681B685B6903F09E
:105230008003002B0BD07B68DB6D01229A403B6919
:105240009A607B685B6D43F002027B685A657B68FD
:10525000DB6D04229A40FB681340002B12D07B6860
:105260001B681B6803F00203002B0BD07B68DB6D0F
:1052700004229A403B699A607B685B6D43F00402AC
:105280007B685A657B68DB6D10229A40FB6813408F
:10529000002B43D07B681B681B6803F00803002BBE
:1052A0003CD07B68DB6D10229A403B699A607B683A
:1052B0001B681B6803F48023002B18D07B681B68D5
:1052C0001B6803F40023002B08D17B681B6C002BA8
:1052D00024D07B681B6C786898471FE07B689B6CC8
:1052E000002B1BD07B689B6C7868984716E07B6826
:1052F0001B681B6803F48073002B07D17B681B6855
:105300001A687B681B6822F008021A607B681B6CB5
:10531000002B03D07B681B6C786898477B68DB6D3B
:1053200020229A40FB681340002B00F08F807B689E
:105330001B681B6803F01003002B00F087807B685C
:10534000DB6D20229A403B699A607B6893F8353088
:10535000DBB2052B36D17B681B681A687B681B683B
:1053600022F016021A607B681B685A697B681B680A
:1053700022F080025A617B681B6C002B03D17B6892
:105380009B6C002B07D07B681B681A687B681B68C6
:1053900022F008021A607B68DB6D3F229A403B696D
:1053A0009A607B68012283F835207B68002283F8AD
:1053B00034207B681B6D002B7ED07B681B6D78686A
:1053C000984779E07B681B681B6803F48023002BF7
:1053D0001DD07B681B681B6803F40023002B0DD1D4
:1053E0007B685B6C002B31D07B685B6C786898477E
:1053F0002CE000BF00000020B5814E1B7B68DB6BFA
:10540000002B23D07B68DB6B786898471EE07B68B5
:105410001B681B6803F48073002B0FD17B681B682B
:105420001A687B681B6822F010021A607B680122F0
:1054300083F835207B68002283F834207B68DB6B9F
:10544000002B03D07B68DB6B786898477B685B6DCB
:10545000002B32D07B685B6D03F00103002B22D060
:105460007B68052283F835207B681B681A687B6897
:105470001B6822F001021A60BB680133BB607A69C5
:105480009A4207D37B681B681B6803F00103002B5B
:10549000F2D100E000BF7B68012283F835207B68F1
:1054A000002283F834207B68DB6C002B05D07B68FE
:1054B000DB6C7868984700E000BF1837BD4680BDB8
:1054C00080B483B000AF78607B685B6D18460C37A2
:1054D000BD465DF8047B704780B485B000AFF860CE
:1054E000B9607A603B60FB681B681A68FB681B68E0
:1054F00022F480221A60FB681B683A685A60FB68D5
:105500009B68402B08D1FB681B687A689A60FB682F
:105510001B68BA68DA6007E0FB681B68BA689A60C3
:10552000FB681B687A68DA6000BF1437BD465DF817
:10553000047B704780B485B000AF78607B681B68DF
:10554000DBB2103B144AA2FB03231B09FB60134A86
:10555000FB6813441B781A467B68DA65FB68032BEB
:1055600009D97B681B6823F47F7323F003031A1D9A
:105570007B689A6507E07B681B6823F47F7323F0E0
:1055800003037A6893657B689B6D18461437BD46A4
:105590005DF8047B704700BFABAAAAAA3852020884
:1055A00080B485B000AF78600023FB737B689B6A92
:1055B000BB607B689B69002B1FD1BB68032B56D84F
:1055C00001A252F823F000BFD9550008EB5500089E
:1055D000D95500086F5600087B68DB6A03F08073BA
:1055E000002B46D00123FB7343E07B68DB6AB3F1F9
:1055F000C07F40D10123FB733DE07B689B69B3F51D
:10560000005F21D1BB68032B37D801A252F823F0E9
:105610002156000827560008215600083956000870
:105620000123FB7330E07B68DB6A03F08073002B9F
:1056300025D00123FB7322E07B68DB6AB3F1C07FD6
:105640001FD10123FB731CE0BB68022B03D9BB688D
:10565000032B03D018E00123FB7315E07B68DB6AA2
:1056600003F08073002B0ED00123FB730BE000BF0F
:105670000AE000BF08E000BF06E000BF04E000BF92
:1056800002E000BF00E000BFFB7B18461437BD46B8
:105690005DF8047B704700BF80B485B000AF7860D0
:1056A0007B6803F00703FB600C4BDB68BB60BA68E8
:1056B0004FF6FF031340BB60FB681A02BB6813433D
:1056C00043F0BF6343F40033BB60044ABB68D3605C
:1056D00000BF1437BD465DF8047B704700ED00E065
:1056E00080B400AF044BDB681B0A03F007031846C5
:1056F000BD465DF8047B704700ED00E080B483B0E8
:1057000000AF0346FB7197F90730002B0BDBFB79E9
:1057100003F01F02074997F907305B09012000FADF
:1057200002F241F8232000BF0C37BD465DF8047B30
:10573000704700BF00E100E080B483B000AF0346D3
:105740003960FB7197F90730002B0ADB3B68DAB24E
:105750000C4997F907301201D2B20B4483F80023A9
:105760000AE03B68DAB20849FB7903F00F03043B17
:105770001201D2B20B441A7600BF0C37BD465DF859
:10578000047B704700E100E000ED00E080B489B0E8
:1057900000AFF860B9607A60FB6803F00703FB6153
:1057A000FB69C3F10703042B28BF0423BB61FB691A
:1057B0000433062B02D9FB69033B00E000237B6125
:1057C0004FF0FF32BB6902FA03F3DA43BB681A40B9
:1057D0007B699A404FF0FF317B6901FA03F3D943AB
:1057E0007B680B40134318462437BD465DF8047BA5
:1057F000704780B582B000AF78607868FFF74CFFE3
:1058000000BF0837BD4680BD80B586B000AF0346F7
:10581000B9607A60FB7300237B61FFF761FF7861F9
:105820007A68B9687869FFF7B1FF024697F90F30D7
:1058300011461846FFF780FF00BF1837BD4680BDF0
:1058400080B582B000AF0346FB7197F90730184668
:10585000FFF754FF00BF0837BD4680BD80B500AFDD
:105860000E4B1B680D4A43F4007313600B4B1B680F
:105870000A4A43F480631360084B1B68074A43F4E9
:10588000807313600320FFF7B4FF0F200FF0D2FFE7
:105890000FF0A4FF0023184680BD00BF003C02406B
:1058A00080B400AF064B1B781A46064B1B681344A6
:1058B000044A136000BFBD465DF8047B704700BF1B
:1058C000080000207801002080B400AF034B1B6863
:1058D0001846BD465DF8047B704700BF7801002084
:1058E00080B584B000AF7860FFF7EEFFB8607B68EA
:1058F000FB60FB68B3F1FF3F05D00A4B1B781A46EB
:10590000FB681344FB6000BFFFF7DEFF0246BB6885
:10591000D31AFA689A42F7D800BF00BF1037BD46C5
:1059200080BD00BF0800002080B584B000AF786063
:105930000023FB737B68002B01D1012333E07B68DC
:105940001B6C002B09D178680FF0E2F97B6800220C
:105950005A647B68002283F83C207B681B6C03F050
:105960001003002B18D17B681B6C23F4885323F0A1
:10597000020343F002027B681A64786800F0D8FAE8
:105980007B6800225A647B681B6C23F0030343F09E
:1059900001027B681A6401E00123FB737B6800222B
:1059A00083F83C20FB7B18461037BD4680BD0000C5
:1059B00080B485B000AF78600023BB607B6893F84B
:1059C0003C30012B01D10223B2E07B68012283F835
:1059D0003C207B681B689B6803F00103012B18D0F7
:1059E0007B681B689A687B681B6842F001029A60BA
:1059F000524B1B68524AA2FB03239A0C13465B00CE
:105A00001344BB6002E0BB68013BBB60BB68002B7A
:105A1000F9D17B681B689B6803F00103012B7AD1E5
:105A20007B681B6C23F4E06323F0010343F4807272
:105A30007B681A647B681B685B6803F48063002BD7
:105A400007D07B681B6C23F4405343F480527B687F
:105A50001A647B681B6C03F48053B3F5805F06D136
:105A60007B685B6C23F006027B685A6402E07B680B
:105A700000225A647B68002283F83C20314BFB6093
:105A80007B681B686FF022021A60FB685B6803F09A
:105A90001F03002B2AD17B681B682B4A934215D029
:105AA0007B681B68294A934205D1264B5B6803F04B
:105AB0001F03002B0AD07B681B68254A934236D10E
:105AC000204B5B6803F01003002B30D17B681B6810
:105AD0009B6803F04053002B29D17B681B689A68B0
