:020000040800F2
:10000000000002201D800108217D0108297D0108D2
:10001000317D0108397D0108417D010800000000A3
:10002000000000000000000000000000C12B0108DB
:10003000497D010800000000112E01083D1F010844
:100040006D8001086D8001086D8001086D800108D8
:100050006D8001086D8001086D8001086D800108C8
:100060006D8001086D8001086D8001086D800108B8
:100070006D8001086D8001086D8001086D800108A8
:100080006D8001086D8001086D8001086D80010898
:100090006D8001086D8001086D8001086D80010888
:1000A0006D8001086D8001086D8001086D80010878
:1000B0006D8001086D8001086D8001086D80010868
:1000C0006D8001086D8001086D8001086D80010858
:1000D0006D8001086D8001086D8001086D80010848
:1000E0006D8001086D8001086D8001086D80010838
:1000F0006D800108597D01086D8001086D8001083F
:100100006D8001086D7D01086D8001086D8001081A
:100110006D8001086D8001086D8001086D80010807
:100120006D8001086D8001086D800108817D0108E6
:100130006D80010800000000000000006D800108D3
:100140006D8001086D8001086D800108957D0108B2
:100150006D800108A97D01086D8001086D8001088E
:100160006D8001086D8001086D8001086D800108B7
:100170006D8001086D800108000000000000000093
:080180006D8001086D8001088B
:1001C0000348044B834202D0034B03B118477047E6
:1001D0006801002068010020000000000548064B6F
:1001E0001B1AD90F01EBA301491002D0034B03B135
:1001F00018477047680100206801002000000000D7
:1002000010B5064C237843B9FFF7DAFF044B13B15E
:100210000448AFF300800123237010BD6801002063
:10022000000000006829020808B5044B1BB104490E
:100230000448AFF30080BDE80840CFE700000000AD
:100240006C010020682902087BB972B90029BEBF81
:1002500000204FF0004106E008BF00281CBF6FF0EF
:1002600000414FF0FF3000F0B5B9ADF1080C6DE979
:1002700004CE002909DB002B1ADB00F04DF8DDF875
:1002800004E0DDE9022304B07047404261EB410124
:10029000002B1BDB00F040F8DDF804E0DDE9022371
:1002A00004B0404261EB4101524263EB43037047AB
:1002B000524263EB430300F02FF8DDF804E0DDE980
:1002C000022304B0404261EB41017047524263EBAC
:1002D000430300F021F8DDF804E0DDE9022304B077
:1002E000524263EB4303704753B94AB9002908BF30
:1002F00000281CBF4FF0FF314FF0FF3000F06AB90B
:10030000ADF1080C6DE904CE00F006F8DDF804E06C
:10031000DDE9022304B070472DE9F047089D0E4641
:1003200004460F46002B4AD194468C45B2FA82F21D
:1003300060D942B1C2F12003974020FA03F30CFACE
:1003400002FC1F4394404FEA1C4E1FFA8CF6B7FB89
:10035000FEF1230C0EFB117743EA074301FB06F085
:1003600098420AD91CEB030301F1FF3780F0158195
:10037000984240F21281023963441B1AA4B2B3FBC3
:10038000FEF00EFB103344EA034400FB06F6A642DF
:100390000AD91CEB040400F1FF3380F00081A6426F
:1003A00040F2FD806444023840EA0140A41B002171
:1003B0001DB1D4400023C5E90043BDE8F0878B425E
:1003C00005D90DB1C5E9000100210846F5E7B3FAEA
:1003D00083F1002946D1B34202D3824200F2F58074
:1003E000841A66EB030201201746002DE5D0C5E90B
:1003F0000047E2E7002A40F09380A1EB0C034FEAAC
:100400001C471FFA8CFE0121B3FBF7F607FB1630E1
:10041000230C43EA00430EFB06F0984208D91CEB7C
:10042000030306F1FF3802D2984200F2D08046461C
:100430001B1AA4B2B3FBF7F007FB103344EA0344E2
:100440000EFB00FEA64508D91CEB040400F1FF33A7
:1004500002D2A64500F2B6801846A4EB0E0440EA8C
:100460000640A5E7C1F120078B4022FA07FC4CEAC1
:10047000030C06FA01FE20FA07F426FA07F344EA11
:100480000E0400FA01F84FEA1C404FEA1449B3FB8E
:10049000F0FE1FFA8CF600FB1E3349EA03430EFB05
:1004A00006F9994502FA01F20BD91CEB03030EF190
:1004B000FF3A80F08580994540F28280AEF1020ECD
:1004C0006344A3EB0909A4B2B9FBF0F300FB139951
:1004D00044EA094403FB06F6A64208D91CEB0404CF
:1004E00003F1FF3068D2A64266D9023B644443EA76
:1004F0000E40A41BA0FB02E6B4427346B14652D3A1
:100500004FD05DB1B8EB030264EB090404FA07F7BE
:1005100022FA01F31F43CC40C5E9007400214CE7E7
:10052000C2F1200120FA01F30CFA02FC26FA01F1D3
:10053000964033434FEA1C471FFA8CFEB1FBF7F09D
:1005400007FB1016190C41EA064100FB0EF68E421D
:1005500004FA02F408D91CEB010100F1FF382DD296
:100560008E422BD902386144891B9BB2B1FBF7F64E
:1005700007FB161143EA014306FB0EF1994208D925
:100580001CEB030306F1FF3814D2994212D9023E44
:1005900063445B1A46EA004136E73946EDE6184601
:1005A00002E7F045ADD2BEEB020366EB0C06013864
:1005B000B146A6E74646ECE7034698E74046D3E750
:1005C000D6467EE76444023847E708460DE7023E18
:1005D00063442DE7704700BF10B51C4C0029246808
:1005E0009AB02DDB009004904FF40270ADF80C002F
:1005F0004FF00000199013D001394FF6FF700291AF
:100600000591ADF80E006946204600F03FF9421C06
:1006100001DA8B232360009B00221A701AB010BDF0
:100620004FF6FF7002910591ADF80E006946204625
:1006300000F02CF9431C01DA8B2323601AB010BDA3
:100640008B2323604FF0FF30F8E700BF000000204D
:1006500030B51446002C9BB005462EDB1A464FF4ED
:100660000273ADF80C304FF0000300910491199320
:1006700013D04FF6FF73013CADF80E3069461E9B58
:100680000294059400F002F9421C01DA8B232B60DE
:10069000009B00221A701BB030BD4FF6FF73ADF8FF
:1006A0000E3069461E9B0294059400F0EFF8431C3F
:1006B00001DA8B232B601BB030BD8B2303604FF01E
:1006C000FF30F8E72DE9F0478F681D46AF420B6811
:1006D0000C46164636D8B1F90CC01CF4906F0ED1FA
:1006E0003D46184631462A4600F050FCA368DF1B01
:1006F0002368A7602B4400202360BDE8F0874A6987
:10070000096902EB42025F1A02EBD2726B1C5210B3
:100710003B44934292BF914699461A461CF4806F1F
:10072000804611D0114600F053FB824600B3216988
:100730003A4600F0FDFCA38923F4906343F0800364
:10074000A38105E02F46CCE700F08CFD824658B12E
:100750000AEB0703A9EB0707A760C4F810A0C4F8C9
:10076000149023602F46BCE72169404600F0B0FB9F
:10077000A3890C2243F04003C8F800204FF0FF305B
:10078000A381BAE72DE9F04F9368176883B09246CA
:10079000002B74D04FF0000B8B680A6881460C4622
:1007A0005D4645E0B4F90C3013F4906F2CD0D4E9D9
:1007B0000401161A01EB410202EBD272711C5210B5
:1007C0002944914292BF904688460A465B0539D536
:1007D0001146484600F0FCFA019000283DD0324610
:1007E000216900F0A5FCA289019B22F4906242F0ED
:1007F0008002A2819819A8EB0606A660C4F81480AE
:1008000023612060A8462E463246594600F0BEFBC2
:10081000DAF80810A3682268A3EB08033244491BE6
:10082000A3602260CAF8081049B3D7E900B50837B9
:1008300098461046002DF8D09D421E46B2D2A846DA
:100840002E46E1E70146484600F00CFD034600282D
:10085000D0D12169484600F03BFBA3890C2243F02C
:100860004003C9F800204FF0FF30A381002200238D
:10087000CAF80820CAF8043003B0BDE8F08F0020A1
:100880000023CAF8043003B0BDE8F08F2DE9F04F23
:100890001C468B891D069DB088468146934603D52C
:1008A0000B69002B00F0F1800023099343F2200331
:1008B000ADF829309BF800307D4D03940126002BC4
:1008C00073D0DA4603E01AF8013F002B75D0252BD0
:1008D000F9D1BAEB0B0473D19AF80020002A64D046
:1008E00000234FF0FF32CDE905230AF1010A0493FA
:1008F00007938DF853301A9305E0049A06FA03F330
:100900001A430492A2465446052214F8011B2846B5
:1009100000F0BEFBA346431B0028EED1049BD80683
:1009200044BF20228DF8532019079AF8001044BFC5
:100930002B228DF853202A2950D1039A11680432B2
:10094000002903927CDB07919AF801102E295BD0D5
:10095000584C0322204600F09BFB38B1049B001B3F
:100960004022824013430BF1010B04931BF8011B3F
:1009700051488DF82810062200F08AFB002865D027
:100980004E4B002B55D003AA00924D4B424604A972
:100990004846AFF3008007467A1C06D0099B3B44CB
:1009A00009939BF80030002B8BD1B8F80C305B0614
:1009B0007AD409981DB0BDE8F08FBAEB0B04F4D0DF
:1009C00023465A4641464846FFF77CFE0130ECD0AC
:1009D000099B9AF80020234409937FE7A1F1300294
:1009E000092A88BFD346B1D8079B00E0013421789B
:1009F00003EB830302EB4303A1F13002092AF5D98B
:100A00002E290793A346A3D19BF801102A2927D1A9
:100A1000039B9BF802101A6805920433002A0BF11D
:100A200002000393B8BF4FF0FF338346B8BF05936E
:100A30008EE7039B073323F0070308330393ADE7E7
:100A4000494243F00203079104937DE703AA009211
:100A50001B4B424604A9484600F0C8FC07469BE7EA
:100A6000A1F130020023092A05930BF1010B3FF697
:100A70006FAF1BF8011F03EB830302EB4303A1F1EC
:100A80003002092AF5D9059362E7402100F0A0F968
:100A9000C8F80000C8F8100018B14023C8F8143096
:100AA00002E70C23C9F800304FF0FF3082E700BFA7
:100AB000B8630208C0630208C463020800000000B3
:100AC000C506000870B50F4B0F4DAB42A3EB0506F2
:100AD00007D0B610002455F8043B01349847A642CD
:100AE000F9D821F041FF094D094B5E1BAB424FEA9B
:100AF000A60606D0002455F8043B01349847A642C8
:100B0000F9D870BD1C6402081C6402081C64020849
:100B1000206402080EB470B59DB021AC00254FF4DE
:100B2000017254F8046BADF814201B9502900690E6
:100B300000F066F80B4B0B930B4B03904FF6FF71D5
:100B40000790ADF8161018680F953246234602A993
:100B50001495019401F07AF81DB0BDE8704003B01F
:100B6000704700BF191B0008000000200CB4F0B54E
:100B70009DB022AC00254FF401730646084654F898
:100B8000047BADF81430029106911B9500F038F803
:100B90000346039307930A4B0B934FF6FF73ADF88D
:100BA00016303A463046234602A90F951495019413
:100BB00001F04CF81DB0BDE8F04002B0704700BF36
:100BC000191B0008000000000000000000000000E9
:100BD0000000000000000000000000000000000015
:100BE0000000000000000000000000000000000005
:100BF00000000000000000000000000000000000F5
:100C000030B490F800F020F007016FF0000C10F005
:100C1000070491F820F040F048804FF000046FF096
:100C20000700D1E9002391F840F000F1080082FAB2
:100C30004CF2A4FA8CF283FA4CF3A2FA8CF34BBB7D
:100C4000D1E9022382FA4CF200F10800A4FA8CF2F6
:100C500083FA4CF3A2FA8CF3E3B9D1E9042382FAC4
:100C60004CF200F10800A4FA8CF283FA4CF3A2FAD9
:100C70008CF37BB9D1E9062301F1200182FA4CF211
:100C800000F10800A4FA8CF283FA4CF3A2FA8CF378
:100C9000002BC6D0002A04BF04301A4612BAB2FA9A
:100CA00082F200EBD20030BC7047D1E9002304F09F
:100CB0000305C4F100004FEAC50514F0040F91F8D4
:100CC00040F00CFA05F562EA05021CBF63EA050371
:100CD00062464FF00004AAE7830730B547D0541EA0
:100CE000002A3ED0CAB2034601E0013C39D303F8E2
:100CF000012B9D07F9D1032C2CD9CDB205EB05258D
:100D00000F2C05EB054535D9A4F1100222F00F0C8C
:100D100003F1100EE6444FEA121C1A46C2E90055D0
:100D2000C2E9025510327245F8D10CF1010214F0FB
:100D30000C0F03EB021204F00F0C13D0ACF1040300
:100D400023F003030433134442F8045B9342FBD1C2
:100D50000CF003042CB1C9B21C4403F8011BA342DC
:100D6000FBD130BD64461346002CF4D1F9E70346AD
:100D70001446C0E71A46A446E0E700BF014B1868D6
:100D8000704700BF0000002070B5104E3368054664
:100D90000C46B3B12146284600F09AFE431C0CD005
:100DA000C41C24F00304A04205D0211A284600F0F8
:100DB0008FFE013001D0204670BD4FF0FF34204639
:100DC00070BD194600F084FE3060E3E78401002026
:100DD0002DE9F843CD1C25F0030508350C2D38BF4F
:100DE0000C25002D064618DBA94216D8DFF8DC805A
:100DF00000F03EFCD8F80420A2B1144603E063687A
:100E000022467BB11C4623685B1BF8D40B2B1FD8F2
:100E10009442636854D053600CE00C23336000208C
:100E2000BDE8F88329463046FFF7AEFF431C044671
:100E300019D00560304600F01DFC04F10B00231DA5
:100E400020F00700C21A1CBF1B1AA350BDE8F8838C
:100E500061199442256014BF5160C8F804106351B1
:100E600063684B60E6E7D8F804701FB33C467F68C0
:100E7000002FFBD123683946304604EB030900F00C
:100E800027FE814516D12368ED1A29463046FFF723
:100E90007BFF01300ED02368D8F804202B44236058
:100EA000536883B1A34203D01A465B689C42FBD1CE
:100EB0000023B0E70C233360304600F0DBFBAEE7E5
:100EC000C8F80430B6E7C8F80470B3E7840100201E
:100ED000002950D038B551F8043C0C1F002BB8BF86
:100EE000E418054600F0C4FB274A13682BB1A3425F
:100EF0000CD92168601883422CD0636028461460A6
:100F0000BDE8384000F0B6BBA3420FD81A465B6874
:100F1000002BF9D111685018844217D02CD363608C
:100F200054602846BDE8384000F0A4BB1168501852
:100F3000A04214D020D8216860188342EFD11868ED
:100F40005B680844C4E900035460EAE723680B4483
:100F50001360E6E718685B6808442060CDE7206806
:100F60000144501883421160DBD1D3E900040144ED
:100F7000C2E90014D5E770470C232B602846BDE872
:100F8000384000F077BB00BF8801002088420ED9AE
:100F90008B1883420BD900EB020C002A6ED06246FC
:100FA00013F801CD02F801CD9942F9D170470F2A0B
:100FB0000FD8034602F1FF3C002A5FD00CF1010C70
:100FC000013B8C4411F8012B03F8012F6145F9D145
:100FD000704740EA01039B0751D1A2F1100370B59D
:100FE00001F1200C23F00F0501F1100E00F11004A7
:100FF000AC441B095EF8105C44F8105C5EF80C5CB5
:1010000044F80C5C5EF8085C44F8085C5EF8045C2C
:1010100044F8045C0EF1100EE64504F11004E9D129
:10102000013312F00C0F01EB031102F00F0400EB7F
:10103000031328D0043C24F003064FEA940C1E440A
:101040001C1F8E465EF8045B44F8045FB442F9D17D
:101050000CF1010402F0030203EB840301EB8401B1
:1010600002F1FF3C4AB10CF1010C013B8C4411F838
:10107000012B03F8012F6145F9D170BD704702F1D2
:10108000FF3C03469AE72246EAE700BF0000000063
:1010900001F0FF01102A2BDB10F0070F08D010F829
:1010A000013B013A8B422DD010F0070F42B3F6D12D
:1010B000F0B441EA012141EA014122F007047FF046
:1010C00000070023F0E80256083C85EA010586EA9D
:1010D000010685FA47F5A3FA87F586FA47F6A5FAD9
:1010E00087F68EB9EED1F0BC01F0FF0102F00702E5
:1010F00032B110F8013B013A83EA010313B1F8D190
:101100000020704701387047002D06BF3546033870
:10111000073815F0010F07D1013015F4807F02BFA9
:10112000013015F4C03F0130F0BC0138704700BFFA
:10113000844641EA000313F003036DD1403A41D3E2
:1011400051F8043B40F8043B51F8043B40F8043BA1
:1011500051F8043B40F8043B51F8043B40F8043B91
:1011600051F8043B40F8043B51F8043B40F8043B81
:1011700051F8043B40F8043B51F8043B40F8043B71
:1011800051F8043B40F8043B51F8043B40F8043B61
:1011900051F8043B40F8043B51F8043B40F8043B51
:1011A00051F8043B40F8043B51F8043B40F8043B41
:1011B00051F8043B40F8043B51F8043B40F8043B31
:1011C000403ABDD2303211D351F8043B40F8043BD1
:1011D00051F8043B40F8043B51F8043B40F8043B11
:1011E00051F8043B40F8043B103AEDD20C3205D3E1
:1011F00051F8043B40F8043B043AF9D2043208D0D9
:10120000D2071CBF11F8013B00F8013B01D30B884A
:1012100003806046704700BF082A13D38B078DD028
:1012200010F003038AD0C3F10403D21ADB071CBFFA
:1012300011F8013B00F8013B80D331F8023B20F864
:10124000023B7BE7043AD9D3013A11F8013B00F89D
:10125000013BF9D20B7803704B7843708B78837025
:10126000604670472DE9F041144641B30AB3064683
:101270000D4600F089FC8442074602D8B4EB500FBB
:1012800013D821463046FFF7A3FD804650B1BC423B
:101290002246294628BF3A46FFF74AFF29463046EC
:1012A000FFF716FE4046BDE8F081A8464046BDE87F
:1012B000F081A046FFF70CFE4046BDE8F081BDE896
:1012C000F0411146FFF784BD2DE9F84F92461F46C5
:1012D0000A698B68DDF828909A42B8BF1A46CAF8A6
:1012E000002091F843300C46064613B10132CAF88B
:1012F0000020226891065FD5DAF800300233CAF880
:101300000030226812F0060F11461DD1E1689942A3
:10131000D8BF114618DD4FF0000804F1190B05E0A5
:10132000E568DAF80030ED1A45450CDD01235A4630
:1013300039463046C847013008F10108F0D14FF076
:10134000FF30BDE8F88F216894F84330003B18BFA8
:1013500001238A060AD5E1185A1C302081F843007F
:10136000224494F8451082F84310023304F14302FA
:1013700039463046C8470130E1D02368DAF80050DA
:10138000216903F00603042BD4E902201BD08A4212
:1013900020DD4FF00008521A90441A34002501E075
:1013A000454517DA0123224639463046C847013001
:1013B00005F10105F4D1C2E712F0060F0DD0003B94
:1013C00018BF0123D2E7401B8A4220EAE078E2DC22
:1013D0000028E2DC0020BDE8F88FE168DAF8003090
:1013E0009942D8BF114696DCAEE700BF2DE9F04721
:1013F000174684B00A7E0C9D0C460646984601F1BD
:10140000430C002A35D0A2F15803D9B2202969D85B
:10141000202B67D8DFE813F0E60066006600660060
:101420006600660066006600660066006600AC0046
:101430007000660066006600660070006600660068
:101440006600660021008300C60066006600B600E4
:101450006600830066006600EC002B682268616904
:10146000181D286010061B6802D4520600F1E080A7
:1014700019600023E1462361CDF800803B4603AAB2
:1014800021463046FFF720FF013020D023694A462D
:1014900039463046C047013019D02368E068DDF88E
:1014A0000C909B0718D5484516DD002504F1190A54
:1014B00004E0E068A0EB0903AB420DDD01235246D6
:1014C00039463046C047013005F10105F1D14FF0F2
:1014D000FF3004B0BDE8F0874845B8BF484604B0C7
:1014E000BDE8F08784F84220012004F1420900237E
:1014F000206184F84330BFE72A682368111D18066D
:10150000296002D4590600F1958010680146002830
:101510006268C0F2938054484FF00A0E15E02068CC
:101520002B6810F0800F53F8041B02D1400648BF0F
:1015300089B26F2A4C482B6014BF4FF00A0E4FF04F
:10154000080E0023626884F84330002AA26051DB51
:10155000236823F00403236000294BD1002A7BD1A8
:10156000E146BEF1080F56D0ACEB0903236183E7D7
:101570002B681A6804332B6004F1420984F8422076
:101580000120B4E72B686268191D2960D3F8009028
:1015900000214846FFF77CFD002863D0A0EB09003E
:1015A0006060A4E7236843F02003236078222F487B
:1015B00084F845202A6813F0800F52F8041B03D1E9
:1015C00013F0400F18BF89B22A60DA0744BF43F016
:1015D0002003236019B9236823F0200323604FF010
:1015E000100EAEE7582384F845301F482368E1E722
:1015F0002368DBE77546E146B1FBF5F305FB131AFB
:101600000A46AA4210F80A1009F8011D1946F3D239
:10161000BEF1080FA8D12368DD07A5D5626823694C
:101620009A42A1DC302309F8013C09F1FF399BE71C
:1016300019801EE7B2F90010084668E72D20002A3D
:10164000A26084F8430002DB23F0040323600A2530
:1016500005484942AE46CEE7037884F8423004F1AB
:1016600042097EE7606842E7CC630208E063020853
:10167000704700BF704700BF00000000000000007E
:1016800002780B78012A28BF9A4240F0D8806DE991
:10169000044540EA0104CDE902676FF0000C4FEA0F
:1016A00044721AB380EA010414F0070F6BD100F002
:1016B000070420F0070004F0030521F007014FEABA
:1016C000C505F0E8042314F0040FF1E804670CFAF0
:1016D00005F462EA040266EA04060BD063EA040336
:1016E000624667EA0407664604E000BFF0E80423A8
:1016F000F1E8046782FA4CF582EA0604A4FA8CF455
:101700006CBB83FA4CF583EA0705A5FA8CF595B90D
:1017100050E9022351E9026782FA4CF582EA060495
:10172000A4FA8CF483FA4CF583EA0705A5FA8CF544
:101730002543DBD09CB92DBAB5FA85F424F0070413
:1017400027FA04F1DDE9026723FA04F303F0FF004E
:1017500001F0FF01FDE80445A0EB0100704724BA49
:10176000B4FA84F424F0070426FA04F1DDE90267F0
:1017700022FA04F202F0FF0001F0FF01FDE8044547
:10178000A0EB0100704714F0030F3CD110F00304EC
:1017900028D150F8082B51F8083B82FA4CF582EA20
:1017A0000305A5FA8CF55DB950F8042C51F8043CFA
:1017B00082FA4CF582EA0305A5FA8CF5002DE8D0F3
:1017C0002DBAB5FA85F424F0070423FA04F122FABD
:1017D00004F202F0FF0001F0FF01FDE80445A0EB78
:1017E000010070474FEAC40420F0030050F8082BB2
:1017F00021F0030151F8083B0CFA04F462EA0402F8
:1018000063EA0403C9E710F003041DD0A1EB04014F
:1018100020F00300E40750F8042B06D012D28B7896
:101820005FFAA2F4E41A06D12BB1CB785FFAB2F4D6
:10183000E41A00D133B920465DF8104B7047A2EB93
:101840000300704701F1040150F8042BCC0721F08C
:10185000030151F8043B48D824D222F07F4482FA95
:101860004CF594EA1325A5FA8CF50AD165B951F81F
:10187000043B84EA0204B4EB036F0ED150F8042B4E
:10188000EBE74FEA132355E035F07F454DD108785B
:10189000FDE80445C0F1000070474FEA126203F012
:1018A000FF0347E002EA1C4482FA4CF594EA134530
:1018B000A5FA8CF50AD165B951F8043B84EA020413
:1018C000B4EB034F0CD150F8042BEBE74FEA134372
:1018D00030E015EA1C4528D10B884FEA124229E076
:1018E0004FEA124203EA1C4324E002F0FF0482FAAA
:1018F0004CF594EA1365A5FA8CF50AD165B951F84F
:10190000043B84EA0204B4EB032F09D150F8042B02
:10191000EBE74FEA13630DE015F0FF0F05D10B68FD
:101920004FEA122223F07F4304E04FF00000FDE86D
:101930000445704712BA1BBA82FA4CF482EA0304D7
:10194000A4FA8CF5B5FA85F402FA04F203FA04F36A
:101950004FEA1260FDE80445A0EB1360704700BF3A
:1019600008B410B5002A9DB0044636DB4FF402736C
:10197000ADF814304FF000031B930291069120AB99
:1019800017D0013A4FF6FF7104920792ADF8161086
:101990001F9A019302A9FEF779FF421C01DA8B23FB
:1019A0002360029B00221A701DB0BDE8104001B0F8
:1019B00070474FF6FF7104920792ADF816101F9A08
:1019C000019302A9FEF762FF431C01DA8B23236017
:1019D0001DB0BDE8104001B070478B2303604FF08D
:1019E000FF30F5E70CB410B5214B00291C689CB002
:1019F00038DB4FF000034FF402721B93ADF8142054
:101A0000029006901FAB18D001394FF6FF72049177
:101A10000791ADF8162002A91E9A01932046FEF701
:101A200035FF421C01DA8B232360029B00221A70CF
:101A30001CB0BDE8104002B070474FF6FF72049131
:101A40000791ADF8162002A91E9A01932046FEF7D1
:101A50001DFF431C01DA8B2323601CB0BDE810403E
:101A600002B070478B2323604FF0FF30F5E700BFD3
:101A700000000020032A30B415D941EA0004A4076D
:101A800084460B4604D0541E0FE0043A032A08D9BA
:101A90001946604653F8044B5CF8045BA542F4D049
:101AA000F1E760461946541E7AB1431E0139021906
:101AB00001E09A4209D013F8010F11F801CF6045F7
:101AC000F7D0A0EB0C0030BC7047002030BC704752
:101AD00038B5074D0022044608462A6016F016FA6B
:101AE000431C00D038BD2B68002BFBD0236038BDD1
:101AF000C802002010B50C46B1F90E1000F0BCFE73
:101B0000002803DB636D0344636510BDA38923F4E0
:101B10008053A38110BD00BF002070472DE9F04124
:101B20000C46B1F90C101F46CB05054616460BD4E2
:101B300021F48051A1813B46B4F90E10324628466B
:101B4000BDE8F04100F0B6BFB4F90E100223002248
:101B500000F0F4FEB4F90C10EAE700BF10B50C4633
:101B6000B1F90E1000F0EAFEB4F90C30421C0EBFC1
:101B700023F4805343F480536065A38110BD00BFFC
:101B8000B1F90E1000F0BABC51F8043C181F002B3C
:101B9000BCBF0B58C018704738B54B1C1AD093897E
:101BA000144623F020035268A381636BCDB2A3B126
:101BB000A36B934209DD23685A1E226003F8015C7F
:101BC000636801336360284638BD214600F0CCFECF
:101BD0000028F0D04FF0FF35F5E7236921682BB1DD
:101BE0008B4203D211F8013CAB420ED02346C4E92C
:101BF0000F1204F1440003226063A26303F8465FFE
:101C00000122C4E90032284638BD01390132C4E955
:101C10000012D8E710B50C46496B69B104F14403D2
:101C2000994201D0FFF754F9236C63600020606390
:101C300013B1E36B236010BDA2892369002142F038
:101C400020026160A2814FF0FF30F3E72DE9F047F9
:101C5000ADF5247D92F8009001930023CDE9453342
:101C6000864BA1930DF10808854BA293CDF81C81FA
:101C7000B9F1000F14D0834F17F80930924613F0D2
:101C8000080306460C460AF101052ED1B9F1250FCD
:101C900045D06368002B08DD23681A784A450FD0C9
:101CA00045980DF5247DBDE8F087A29B214630467E
:101CB0009847002840F00B8123681A784A45EFD1F5
:101CC000013323606368013B6360469B0133AA468E
:101CD00046939AF80090B9F1000FE1D017F8093057
:101CE00013F008030AF10105D0D062680DE0236803
:101CF0001A78BA5C110703F101030ED562684699A0
:101D0000013AC4E9003201314691002A21463046A9
:101D1000EDDCA29B98470028E9D0AA46D9E7449376
:101D200042939AF801102A2905D1102342939AF878
:101D300002100AF10205A1F13003092B0DD800238E
:101D400003EB830301EB4301A1F13003449315F846
:101D5000011FA1F13002092AF2D9DFF82CA10322D8
:101D60005046FFF795F938B1429AA0EB0A000123DB
:101D70008340134301354293AA461AF8013B782B5E
:101D800000F28480DFE813F0A90082008200820064
:101D90008200820082008200820082008200820033
:101DA0008200820082008200820082008200820023
:101DB0008200820082008200820082008200820013
:101DC0008200820082008200820082008200820003
:101DD0008200110182008200820082008200820063
:101DE00082008200820082008200820082008200E3
:101DF00082008200820082008200820082008200D3
:101E000082008200820082008200820082008200C2
:101E10008200C700C700C7008200820082008200E3
:101E200082008200820082008200820082008200A2
:101E30008200820082008200CA0082008200FC00D0
:101E400082008200820082008200820082000701FC
:101E5000DE00C700C700C70082000E0182008200BA
:101E600082008200E000EE00F20082008200F900B1
:101E70008200DE0082008200CA0000BF991B0008B9
:101E8000151C000819610208C06302080323489367
:101E90000A2343936368002B4DDD429B580624D5EB
:101EA000489B022B40F38380042B40F38780474BF1
:101EB000002B3FF40EAF01AB224642A93046AFF3F0
:101EC000008001283FF4ECAE02287FF402AF459871
:101ED00018B1A3895B067FF5E4AE4FF0FF30E0E672
:101EE000A29B304698470028F1D122681378FB5C0A
:101EF0001907D5D563684699013B481C002B21463C
:101F00004690636002F10102EADD22601378FB5C17
:101F10001907C5D5EEE705234893BBE7429A42F47B
:101F20000072429210226E2B43921DD803234893D5
:101F30006368002BB1DCA29B2146304698470028FD
:101F4000ABD0C4E70A22EEE7429BDA063FF5C1AE0A
:101F5000019A4699101D0190DB0713684CBF198048
:101F60001960B6E6082343930423E0E7429B43F459
:101F70000873429310234393F6E70223489389E7BB
:101F80005146404600F08EFC429B43F04003429392
:101F900082460123CBE7429B43F040034293002358
:101FA000489377E700234393C0E7554671E601ABBA
:101FB000224642A9304600F00BF882E701AB2246E8
:101FC00042A9304600F06CF87BE700BF000000003B
:101FD0002DE9F8430D461446AA68896907462AB9CF
:101FE000002914BF4FF0FF320122AA602A68D006F0
:101FF00003D41A68101D18601668DFF8A0804FF02F
:10200000000901B3012937D002293BD123681A788E
:1020100018F80220120735D42A68D10609F10109FF
:1020200003D41B7806F8013B23686168AA6801396C
:102030000133013AC4E90031AA606AB1002904DD24
:10204000A9690029DED12368E6E7D5F88031214669
:10205000384698470028F3D02B6813F0100305D1B9
:10206000EA680132EA60AA6902B133702B694B4415
:1020700000202B61BDE8F88323686A691878125C38
:10208000002AC9D1B9F1000FE6D101290846F1D0E3
:102090002B6813F01003E9D1E2E700BF19610208D1
:1020A0002DE9F04F87B00C46074615468648874A0B
:1020B00000938B688969864E032908BF10460190FA
:1020C00096E8070003F1FF3C0DF10C0ABCF5AE7F6A
:1020D0008AE8070040F2B0806FF4AE7103EB0109AB
:1020E00040F25D13A360A0464FF0000B58F81C2B84
:1020F00042F45062226046462B68DAF800001978F4
:102100000222FEF7C5FF50B3BBF1010F0CD0BBF1AB
:10211000020F00F0B280A3685A1EA260A3B94FF06C
:10212000010B0AF1040AE7E7D4E900321AB90822E0
:1021300043F40073626023F4A0632360A3685A1E13
:10214000A260002B00F08A802B685A1C2A601B7842
:1021500006F8013B6B68013B002B6B6073DD0BF1F4
:10216000010BBBF1030FDCD16168002967D0C1F11D
:102170001001584B6069194400F094FBA368002BD0
:1021800000F09F804FF0000A06E02B6801332B60BF
:10219000A368013BA36003B3D5F800E062699EF831
:1021A00000C012F80C1022683046B9B1BCF1300FF3
:1021B00022F4106155D021609EF8003000F8013BF8
:1021C00006466B68013B002B294638466B60DCDC19
:1021D000D4F8803198470028DAD02268D1050CD590
:1021E000464507D916F8011CD4F87C312A463846F2
:1021F000013E9847464562D0226812F0100211D184
:1022000032706368019D38464146A84723689A06A4
:1022100046D500990B681A1D0A601B681860E368B0
:102220000133E3602369A6EB080656443344236177
:10223000002007B0BDE8F08F4FF0000953E70A23F4
:102240006360062195E7D4F88031294638469847DF
:10225000002884D022684FF0000ABFE74FF0020B3D
:102260005FE71205A7D501330AF1010AB9F1000FA2
:10227000A7D0A36009F1FF39A3E7236803F4C06284
:10228000B2F5007F7FF470AF43F480732360A368DE
:10229000102262605A1EA260002B3FF465AF53E724
:1022A000009D2A68DF0702F1040103D52960136845
:1022B0001880B4E7009B196013681860AFE701202D
:1022C000B7E79A4689E700BF152C000801280008E7
:1022D0001C620208F463020800207047024A0349A6
:1022E000034800F0A7BA00BF5000002045260008B0
:1022F000040000200C4B4168994210B5044601D0FF
:1023000000F0A0F9A168094B994202D0204600F0E4
:1023100099F9E168064B994204D02046BDE8104087
:1023200000F090B910BD00BF8C010020F401002026
:102330005C020020002070472DE9F8432A4C2B490D
:10234000DFF8BC90DFF8BC80294FC4F838110025B5
:1023500004230822294604F15C00264EE360C4E908
:102360000055C4E90455A5606566A561FEF7B4FC97
:10237000214B63670822294604F1C400C4E90849D7
:10238000C4E90A87C4E91A55C4E91E552567C4F88B
:10239000CC50C4F880502663FEF79EFC174BC4F85F
:1023A000DC30294604F16803082204F59670C4F86D
:1023B0008830C4E92398C4E92576C4E93455C4E9D2
:1023C0003855C4F8D850C4F83451C4F8E850FEF772
:1023D00083FC04F1D003C4E93D98C4E93F76C4F816
:1023E000F030BDE8F88300BF8C010020DD2200083A
:1023F0005D1B0008811B000809000100120002009B
:10240000F51A00081D1B0008F8B5254BD3F8383124
:102410000646002B3CD0234FD7E90134013B04D5BD
:102420001DE05A1C04F1680419D0B4F90C50013BAA
:10243000002DF6D11C4BE360C4E90155C4E90455F5
:1024400065662560A5610822294604F15C00FEF757
:1024500043FCC4E90D55C4E912552046F8BD3D685A
:102460000DB12F46D8E74FF4D6713046FEF7B0FCD9
:10247000044680B10423C0E900530C302946A06013
:102480004FF4D0722546FEF727FC3C602F46C3E789
:10249000FFF752FFBFE70C2338603360DDE700BF72
:1024A0008C010020500000200100FFFF036A03B1EF
:1024B0007047044B044AD3F838310262002BF7D13D
:1024C0003AE700BF8C010020F5220008704700BFEA
:1024D000704700BF024A0349002000F0ABB900BFBB
:1024E00050000020D9220008024A0349002000F0D1
:1024F000A1B900BF500000203523000838B5074DB2
:102500000022044608462A6015F06FFD431C00D0E7
:1025100038BD2B68002BFBD0236038BDC8020020DB
:10252000B1F90C302DE9F0411E070C4680463DD430
:102530004A68002A56DDE56A002D34D00022D8F81A
:102540000060C8F8002013F48052216A57D101239B
:102550004046A847451C024666D0B4F90C30E56AEF
:10256000216A580705D56368D21A636B0BB1236CD7
:10257000D21A00234046A847431C42D00023636080
:1025800023692360A389DF0400D56065616BC8F807
:10259000006041B104F14403994202D04046FEF785
:1025A00097FC002363630020BDE8F0810E69002ED4
:1025B000F9D09B070D6808BF4B690E6018BF002358
:1025C000AD1B8B600BE02B463246216AA76A404662
:1025D000B847B0F1000CA5EB0C05664406DD002DF4
:1025E000F1DCE0E70A6C002AA5DCDCE7B4F90C308A
:1025F00043F04003A3814FF0FF30BDE8F081626DEE
:10260000AFE7D8F80010B4F90C301D29F0D80C4A07
:10261000CA40D507ECD52269226000226260DA0444
:10262000B4D50029B1D0B1E7D8F80030002B94D050
:102630001D2B01D0162BD9D1C8F80060B3E700BF1D
:10264000010040200B69B3B110B5044682B008B157
:10265000036A5BB1B1F90C3013B9002002B010BDB0
:10266000204602B0BDE81040FFF75ABF0191FFF7C6
:102670001DFF0199EEE70020704700BFB8B138B5E3
:102680000D4A0369156804462BB10DB12B6A53B18D
:10269000B4F90C300BB9002038BD21462846BDE8FE
:1026A0003840FFF73DBF2846FFF700FFF0E7034A39
:1026B0000349044800F0BEB800000020500000208C
:1026C0004526000804000020242B2DE9F84F43D8AC
:1026D000012B41D0804649481F468E4675461EF85C
:1026E00001BB10F80B4014F00804F7D1BBF12D0F1B
:1026F0006FD0BBF12B0F08BF9EF800B06FF0004900
:1027000008BF05F1020E73BBBBF1300F4BD00A2797
:102710003B460025B9FBF7F6284607FB169A05E06D
:102720003AD007FB00C001251EF801BBABF1300C0D
:10273000BCF1090F06D9ABF1410CBCF1190F19D846
:10274000ABF1370C63451EDDB5F1FF3FECD086429F
:10275000E6D24FF0FF35E7E7FEF710FB16230360E4
:102760000020BDE8F88F102BD3D1BBF1300F23D060
:102770001F46CEE7ABF1610CBCF1190F03D8ABF1EA
:10278000570C6345E0DC6B1C2BD054B9002AE8D011
:1027900085BB1160BDE8F88FE245C2DA4FF0FF3526
:1027A000C2E74042F2E79EF8003003F0DF03582B07
:1027B00008D008273B46ACE79EF8000000F0DF0099
:1027C0005828D5D110279EF801B03B460EF1020ED5
:1027D0009FE79EF800B04FF0004905F1020E01247A
:1027E00091E72223C8F8003032B10EF1FF3148469C
:1027F0001160CFE78146F8E74846B2E71961020861
:1028000062E700BF10B4044C8446134620685DF8AC
:10281000044B0A46614657E70000002010B4044C00
:102820008446134620685DF8044B0A4661464BE730
:10283000000000202DE9F8430746884616464FF071
:102840000009D6E90154013D10D4A389012B08D910
:10285000B4F90E3001332146384602D0C04749EA68
:102860000009013D6B1C04F16804EED13668002EAE
:10287000E7D14846BDE8F88338B50C46084D844694
:10288000114620461A4600232B60644615F074FB5F
:10289000431C00D038BD2B68002BFBD0236038BD13
:1028A000C802002070B50C785E2C864624D0002328
:1028B000481C9C46002263F3070263F30F2263F374
:1028C000174263F31F620EF58071734643F8042BC1
:1028D0008B42FBD174B18CF001010EF80410451C41
:1028E00015F8013C2D2B0ED05D2B0AD01BB11C46D8
:1028F0002846F2E7013870BD01234C78881C9C46BD
:10290000D8E7284670BD90F801C0BCF15D0FEED04D
:102910006445ECDC661C02300EEB060202F8011B7B
:10292000A2EB0E03013B9C45F8DCACEB0403013B3E
:102930006445A8BF00230235F418D1E738B50C462A
:10294000084D8446114620461A4600232B606446F3
:1029500015F057FB431C00D038BD2B68002BFBD073
:10296000236038BDC802002001F144032DE9F04185
:102970000C46496B994214D0A66B77003A46FEF795
:1029800071FC054630B300EB06080146324640466E
:10299000FEF7CEFBC4E90D57C4F800800020BDE867
:1029A000F0814FF48061FEF713FA98B194F8463045
:1029B0004FF48062C4E90D0280F8FF3394F845308B
:1029C00080F8FE3394F8442080F8FD2300F2FD33B4
:1029D0002360E3E74FF0FF30E1E700BF70B54C1C28
:1029E0002BD00E460546144610B1036A002B4CD07E
:1029F000B4F90C3023F020025807A28106D4D9067E
:102A00001BD51B0734D442F00402A281626B6368B9
:102A1000F6B2AAB1A26B9A4209DD23685A1E22605F
:102A200003F8016C636801336360304670BD214672
:102A30002846FFF799FF0028EFD04FF0FF36F4E764
:102A4000226921682AB18A4203D211F8012CB242CC
:102A50001ED02246C4E90F1304F14400032360632F
:102A6000A36302F8466F0123C4E90023304670BD1A
:102A700021462846FFF7E6FD0028DED1B4F90C20F8
:102A8000A06022F00802A061BDE7FFF70FFDAFE7ED
:102A900001390133C4E90013C7E700BF10B4044C87
:102AA00003460A4620685DF8044B1946FFF796BFB7
:102AB0000000002038B50C46084D844611462046DB
:102AC0001A4600232B60644615F073FA431C00D0AD
:102AD00038BD2B68002BFBD0236038BDC802002016
:102AE0002DE9F047074649480E46354616F801EBF2
:102AF00010F80EC01CF0080CF7D1BEF12D0F5AD003
:102B0000BEF12B0F03BF96F800E06446AE1C64468E
:102B10004BB9BEF1300F5CD00A23DFF8F4804FF0E0
:102B2000050A99460AE0102B4AD04FF0FF38B8FB4F
:102B3000F3F803FB08FA6FEA0A0A994600252846CB
:102B400005E02CD009FB00C0012516F801EBAEF121
:102B5000300CBCF1090F06D9AEF1410CBCF1190FD4
:102B60000BD8AEF1370C634510DDB5F1FF3FECD06B
:102B70004045E6D94FF0FF35E7E7AEF1610CBCF117
:102B8000190F03D8AEF1570C6345EEDC6B1C0BD06C
:102B900004B140420AB165B91160BDE8F087D4457F
:102BA000D0DD4FF0FF35D0E722233B602846002AD6
:102BB000F3D0711EF0E796F800E00124AE1CA7E701
:102BC000BEF1300F11D04FF00F0A6FF070489946E8
:102BD000B4E7337803F0DF03582B0BD008234FF012
:102BE000070A6FF060489946A8E7307800F0DF00E8
:102BF0005828E8D14FF0100996F801E04FF00F0A7D
:102C000002366FF070484B4698E700BF1961020822
:102C10009999991964E700BF10B4044C844613468F
:102C200020685DF8044B0A46614659E70000002021
:102C300010B4044C8446134620685DF8044B0A46E1
:102C400061464DE70000002080B400AF064BD3F88A
:102C50008830054A43F47003C2F8883000BFBD468F
:102C60005DF8047B704700BF00ED00E080B582B0E6
:102C700000AF78607B68002B01D1012341E07B68C5
:102C800093F83D30DBB2002B06D17B68002283F83D
:102C90003C20786800F039F87B68022283F83D20F8
:102CA0007B681A687B6804331946104600F00AFCFA
:102CB0007B68012283F846207B68012283F83E204E
:102CC0007B68012283F83F207B68012283F8402043
:102CD0007B68012283F841207B68012283F842202F
:102CE0007B68012283F843207B68012283F844201B
:102CF0007B68012283F845207B68012283F83D2010
:102D0000002318460837BD4680BD80B483B000AFAD
:102D1000786000BF0C37BD465DF8047B704700004B
:102D200080B485B000AF78607B6893F83D30DBB24B
:102D3000012B01D001234EE07B68022283F83D2065
:102D40007B681B68DA687B681B6842F00102DA6006
:102D50007B681B68234A934222D07B681B68B3F1CF
:102D6000804F1DD07B681B681F4A934218D07B6838
:102D70001B681E4A934213D07B681B681C4A93420F
:102D80000ED07B681B681B4A934209D07B681B6886
:102D9000194A934204D07B681B68184A934211D1A8
:102DA0007B681B689B6803F00703FB60FB68062BCE
:102DB00010D07B681B681A687B681B6842F00102B0
:102DC0001A6007E07B681B681A687B681B6842F022
:102DD00001021A60002318461437BD465DF8047BD3
:102DE000704700BF000001400004004000080040A0
:102DF000000C004000040140004001400018004069
:102E000080B582B000AF78607B68002B01D10123D0
:102E100041E07B6893F83D30DBB2002B06D17B6844
:102E2000002283F83C20786814F072FE7B6802224E
:102E300083F83D207B681A687B6804331946104686
:102E400000F040FB7B68012283F846207B6801226A
:102E500083F83E207B68012283F83F207B680122B3
:102E600083F840207B68012283F841207B6801229F
:102E700083F842207B68012283F843207B6801228B
:102E800083F844207B68012283F845207B68012277
:102E900083F83D20002318460837BD4680BD00005A
:102EA00080B584B000AF786039603B68002B09D1F1
:102EB0007B6893F83E30DBB2012B14BF0123002363
:102EC000DBB222E03B68042B09D17B6893F83F30EA
:102ED000DBB2012B14BF01230023DBB215E03B68FA
:102EE000082B09D17B6893F84030DBB2012B14BF6B
:102EF00001230023DBB208E07B6893F84130DBB2AA
:102F0000012B14BF01230023DBB2002B01D00123CE
:102F10007CE03B68002B04D17B68022283F83E20D2
:102F200013E03B68042B04D17B68022283F83F2026
:102F30000BE03B68082B04D17B68022283F8402019
:102F400003E07B68022283F841207B681B68012232
:102F50003968184600F00CFD7B681B682D4A9342C7
:102F600004D07B681B682C4A934201D1012300E006
:102F70000023002B07D07B681B685A6C7B681B689A
:102F800042F400425A647B681B68224A934222D072
:102F90007B681B68B3F1804F1DD07B681B681F4A9C
:102FA000934218D07B681B681D4A934213D07B68FC
:102FB0001B681C4A93420ED07B681B68164A9342DA
:102FC00009D07B681B68184A934204D07B681B6851
:102FD000164A934211D17B681B689B6803F0070374
:102FE000FB60FB68062B10D07B681B681A687B6847
:102FF0001B6842F001021A6007E07B681B681A68D0
:103000007B681B6842F001021A60002318461037E3
:10301000BD4680BD000001400004014000040040A6
:1030200000080040000C0040004001400018004033
:1030300080B582B000AF786039607B681B68002281
:103040003968184600F094FC7B681B682E4A93424E
:1030500004D07B681B682D4A934201D1012300E014
:103060000023002B17D07B681B681A6A41F21113EA
:103070001340002B0FD17B681B681A6A40F244434F
:103080001340002B07D17B681B685A6C7B681B6858
:1030900022F400425A647B681B681A6A41F21113D9
:1030A0001340002B0FD17B681B681A6A40F244431F
:1030B0001340002B07D17B681B681A687B681B686C
:1030C00022F001021A603B68002B04D17B680122C8
:1030D00083F83E2013E03B68042B04D17B68012277
:1030E00083F83F200BE03B68082B04D17B6801226A
:1030F00083F8402003E07B68012283F8412000230D
:1031000018460837BD4680BD00000140000401405C
:1031100080B584B000AF78607B681B68DB68FB60BB
:103120007B681B681B69BB60BB6803F00203002B54
:1031300020D0FB6803F00203002B1BD07B681B68C8
:103140006FF002021A617B6801221A777B681B68A4
:103150009B6903F00303002B03D0786800F094F917
:1031600005E0786800F086F9786800F097F97B68E8
:1031700000221A77BB6803F00403002B20D0FB6801
:1031800003F00403002B1BD07B681B686FF0040264
:103190001A617B6802221A777B681B689B6903F4BB
:1031A0004073002B03D0786800F06EF905E0786872
:1031B00000F060F9786800F071F97B6800221A77F6
:1031C000BB6803F00803002B20D0FB6803F0080362
:1031D000002B1BD07B681B686FF008021A617B68AC
:1031E00004221A777B681B68DB6903F00303002B5A
:1031F00003D0786800F048F905E0786800F03AF903
:10320000786800F04BF97B6800221A77BB6803F0FE
:103210001003002B20D0FB6803F01003002B1BD001
:103220007B681B686FF010021A617B6808221A77AE
:103230007B681B68DB6903F44073002B03D078685C
:1032400000F022F905E0786800F014F9786800F0E1
:1032500025F97B6800221A77BB6803F00103002B75
:103260000CD0FB6803F00103002B07D07B681B68C0
:103270006FF001021A61786813F0CAFEBB6803F0B0
:103280008003002B0CD0FB6803F08003002B07D0D9
:103290007B681B686FF080021A61786800F014FC8C
:1032A000BB6803F04003002B0CD0FB6803F0400325
:1032B000002B07D07B681B686FF040021A617868AA
:1032C00000F0F6F8BB6803F02003002B0CD0FB687D
:1032D00003F02003002B07D07B681B686FF02002EF
:1032E0001A61786800F0E6FB00BF1037BD4680BD6C
:1032F00080B586B000AFF860B9607A600023FB75D6
:10330000FB6893F83C30012B01D10223AEE0FB684F
:10331000012283F83C207B680C2B00F29F8001A2E5
:1033200052F823F0593300085D3400085D3400087A
:103330005D340008993300085D3400085D340008EE
:103340005D340008DB3300085D3400085D3400089C
:103350005D3400081B340008FB681B68B968184618
:1033600000F056F9FB681B689A69FB681B6842F01D
:1033700008029A61FB681B689A69FB681B6822F067
:1033800004029A61FB681B689969BB681A69FB684B
:103390001B680A439A6164E0FB681B68B9681846B9
:1033A00000F0A6F9FB681B689A69FB681B6842F489
:1033B00000629A61FB681B689A69FB681B6822F4CB
:1033C00080629A61FB681B689969BB681B691A0275
:1033D000FB681B680A439A6143E0FB681B68B96895
:1033E000184600F0FBF9FB681B68DA69FB681B688C
:1033F00042F00802DA61FB681B68DA69FB681B6847
:1034000022F00402DA61FB681B68D969BB681A699B
:10341000FB681B680A43DA6123E0FB681B68B96834
:10342000184600F04FFAFB681B68DA69FB681B68F6
:1034300042F40062DA61FB681B68DA69FB681B68AA
:1034400022F48062DA61FB681B68D969BB681B697A
:103450001A02FB681B680A43DA6102E00123FB756C
:1034600000BFFB68002283F83C20FB7D184618371C
:10347000BD4680BD80B483B000AF786000BF0C371C
:10348000BD465DF8047B704780B483B000AF7860C0
:1034900000BF0C37BD465DF8047B704780B483B035
:1034A00000AF786000BF0C37BD465DF8047B704705
:1034B00080B483B000AF786000BF0C37BD465DF8C4
:1034C000047B704780B485B000AF786039607B685A
:1034D0001B68FB607B68434A934213D07B68B3F15F
:1034E000804F0FD07B68404A93420BD07B683F4AA5
:1034F000934207D07B683E4A934203D07B683D4AA3
:10350000934208D1FB6823F07003FB603B685B6863
:10351000FA681343FB607B68324A93422BD07B6886
:10352000B3F1804F27D07B682F4A934223D07B682A
:103530002E4A93421FD07B682D4A93421BD07B6852
:103540002C4A934217D07B682B4A934213D07B6856
:103550002A4A93420FD07B68294A93420BD07B685A
:10356000284A934207D07B68274A934203D07B685E
:10357000264A934208D1FB6823F44073FB603B6802
:10358000DB68FA681343FB60FB6823F080023B684A
:103590005B691343FB603B689A687B68DA623B684F
:1035A0001A687B689A627B680E4A934203D07B68F4
:1035B000104A934203D13B681A697B681A637B689F
:1035C0001B6843F004027B681A607B6801225A6121
:1035D0007B68FA681A6000BF1437BD465DF8047B4B
:1035E000704700BF00000140000400400008004098
:1035F000000C004000040140004001400044014034
:103600000048014000180040001C0040002000401D
:1036100080B487B000AF786039607B681B6A7B61DB
:103620007B681B6A23F001027B681A627B685B6817
:103630003B617B689B69FB60FB6823F07003FB6068
:10364000FB6823F00303FB603B681B68FA681343C5
:10365000FB607B6923F002037B613B689B687A69AE
:1036600013437B617B68204A934203D07B681F4AE7
:1036700093420CD17B6923F008037B613B68DB68D4
:103680007A6913437B617B6923F004037B617B6868
:10369000154A934203D07B68144A934211D13B6987
:1036A00023F480733B613B6923F400733B613B6807
:1036B0005B693A6913433B613B689B693A69134311
:1036C0003B617B683A695A607B68FA689A613B683B
:1036D0005A687B685A637B687A691A6200BF1C3734
:1036E000BD465DF8047B70470000014000040140C6
:1036F00080B487B000AF786039607B681B6A7B61FB
:103700007B681B6A23F010027B681A627B685B6827
:103710003B617B689B69FB60FB6823F4E043FB60D3
:10372000FB6823F44073FB603B681B681B02FA686C
:103730001343FB607B6923F020037B613B689B683C
:103740001B017A6913437B617B68224A934203D051
:103750007B68214A93420DD17B6923F080037B6112
:103760003B68DB681B017A6913437B617B6923F04B
:1037700040037B617B68174A934203D07B68164AFB
:10378000934213D13B6923F480633B613B6923F48B
:1037900000633B613B685B699B003A6913433B6193
:1037A0003B689B699B003A6913433B617B683A69BC
:1037B0005A607B68FA689A613B685A687B689A63CA
:1037C0007B687A691A6200BF1C37BD465DF8047BCE
:1037D000704700BF000001400004014080B487B082
:1037E00000AF786039607B681B6A7B617B681B6A0D
:1037F00023F480727B681A627B685B683B617B683C
:10380000DB69FB60FB6823F07003FB60FB6823F05F
:103810000303FB603B681B68FA681343FB607B692A
:1038200023F400737B613B689B681B027A69134336
:103830007B617B68214A934203D07B68204A934294
:103840000DD17B6923F400637B613B68DB681B025D
:103850007A6913437B617B6923F480637B617B68B6
:10386000164A934203D07B68154A934213D13B69B1
:1038700023F480533B613B6923F400533B613B6875
:103880005B691B013A6913433B613B689B691B0100
:103890003A6913433B617B683A695A607B68FA680E
:1038A000DA613B685A687B68DA637B687A691A6216
:1038B00000BF1C37BD465DF8047B70470000014027
:1038C0000004014080B487B000AF786039607B6845
:1038D0001B6A3B617B681B6A23F480527B681A6217
:1038E0007B685B687B617B68DB69FB60FB6823F45A
:1038F000E043FB60FB6823F44073FB603B681B689C
:103900001B02FA681343FB603B6923F400533B61DD
:103910003B689B681B033A6913433B617B68124A0F
:10392000934203D07B68114A934209D17B6923F407
:1039300080437B613B685B699B017A6913437B61D0
:103940007B687A695A607B68FA68DA613B685A6812
:103950007B681A647B683A691A6200BF1C37BD46EF
:103960005DF8047B704700BF000001400004014087
:1039700080B487B000AFF860B9607A60BB6803F0CC
:103980001F03012202FA03F37B61FB681A6A7B6959
:10399000DB431A40FB681A62FB681A6ABB6803F0D3
:1039A0001F03796801FA03F31A43FB681A6200BF28
:1039B0001C37BD465DF8047B7047000080B485B0BD
:1039C00000AF786039607B6893F83C30012B01D1FF
:1039D00002235AE07B68012283F83C207B680222A4
:1039E00083F83D207B681B685B68FB607B681B6815
:1039F0009B68BB60FB6823F07003FB603B681B683F
:103A0000FA681343FB607B681B68FA685A607B683E
:103A10001B68214A934222D07B681B68B3F1804F18
:103A20001DD07B681B681D4A934218D07B681B68B9
:103A30001B4A934213D07B681B681A4A93420ED0EC
:103A40007B681B68184A934209D07B681B68174A39
:103A5000934204D07B681B68154A93420CD1BB6823
:103A600023F08003BB603B685B68BA681343BB60AC
:103A70007B681B68BA689A607B68012283F83D20E6
:103A80007B68002283F83C20002318461437BD468B
:103A90005DF8047B704700BF000001400004004057
:103AA00000080040000C00400004014000400140BC
:103AB0000018004080B483B000AF786000BF0C37BE
:103AC000BD465DF8047B704780B483B000AF78607A
:103AD00000BF0C37BD465DF8047B704780B586B0EB
:103AE00002AF78607B68002B01D1012301E17B6884
:103AF0001B68BB607B6893F89534DBB2002B06D162
:103B00007B68002283F89424786812F0EBF87B68D5
:103B1000032283F89524BB68B3F1A04F02D17B68E0
:103B200000229A717B681B68184601F040FB7B6895
:103B300018687B681A7C8DF8002004330ECB01F0E6
:103B40001FFA0346002B05D07B68022283F89524D8
:103B50000123CEE07B681B680021184601F038FB8A
:103B60000346002B05D07B68022283F895240123AD
:103B7000BFE00023FB734AE0FA7B79681346DB0061
:103B800013449B000B44153301221A70FA7B7968A9
:103B90001346DB0013449B000B441433FA7B1A706A
:103BA000FA7BFB7B98B279681346DB0013449B00D9
:103BB0000B442E3302461A80FA7B79681346DB00E9
:103BC00013449B000B44183300221A70FA7B796867
:103BD0001346DB0013449B000B441C3300221A6085
:103BE000FA7B79681346DB0013449B000B442033B7
:103BF00000221A60FA7B79681346DB0013449B00AD
:103C00000B44243300221A60FB7B0133FB737B6877
:103C10001B79FA7B9A42AFD30023FB7344E0FA7B13
:103C200079681346DB0013449B000B4403F25523D1
:103C300000221A70FA7B79681346DB0013449B005C
:103C40000B4403F51573FA7B1A70FA7B79681346F7
:103C5000DB0013449B000B4403F5167300221A701B
:103C6000FA7B79681346DB0013449B000B4403F591
:103C7000177300221A60FA7B79681346DB0013443D
:103C80009B000B4403F5187300221A60FA7B7968D5
:103C90001346DB0013449B000B4403F51973002209
:103CA0001A60FB7B0133FB737B681B79FA7B9A42BA
:103CB000B5D37B6818687B681A7C8DF800200433C4
:103CC0000ECB01F0D1FA0346002B05D07B6802220F
:103CD00083F8952401230CE07B6800225A747B68EA
:103CE000012283F895247B681B68184602F01BFBB1
:103CF000002318461037BD4680BD80B584B000AFA4
:103D000078607B681B68FB607B6893F89434012BB8
:103D100001D1022322E07B68012283F89424FB680E
:103D2000DB6803F04003002B09D07B685B7B012B31
:103D300005D1FB689B6B43F48032FB689A637B6818
:103D40001B68184601F022FA7B681B68184602F0CF
:103D5000C9FA7B68002283F89424002318461037A0
:103D6000BD4680BD90B58DB000AF78607B681B68A4
:103D70003B623B6AFB617B681B68184602F087FB6D
:103D80000346002B40F08C847B681B68184602F0C9
:103D9000EBFA0346002B00F08284FB6903F5006315
:103DA0009B681B0AC3F30D027B68C3F8D4247B68AD
:103DB0001B68184602F0D8FA034603F00203022BF0
:103DC00007D17B681B685A697B681B6802F0020296
:103DD0005A617B681B68184602F0C6FA034603F076
:103DE0001003102B61D17B681B689A697B681B6884
:103DF00022F010029A613B6A1B6ABB61BB6903F047
:103E00000F021346DB0013449B0003F514737A681A
:103E1000134404337B61BB6903F4F013B3F5802FC3
:103E200024D1BA6947F6F0731340002B35D07B6973
:103E3000D968BB691B099BB2C3F30A039BB21A463C
:103E4000386A02F0FDF87B69DA68BB691B09C3F3C5
:103E50000A031A447B69DA607B695A69BB691B09EA
:103E6000C3F30A031A447B695A6116E0BB6903F481
:103E7000F013B3F5402F10D17B6803F29C43082266
:103E80001946386A02F0DCF87B695A69BB691B097C
:103E9000C3F30A031A447B695A617B681B689A69F9
:103EA0007B681B6842F010029A617B681B681846A9
:103EB00002F05AFA034603F40023B3F5002F40F052
:103EC000A78000237B627B681B68184602F05FFABC
:103ED000B86299E0BB6A03F00103002B00F08E800A
:103EE0007B681B687A6AD2B21146184602F083FAE0
:103EF00038613B6903F00103002B0CD07B6A5A0147
:103F0000FB69134403F530631A4601239360796A11
:103F1000786800F0A3FE3B6903F00803002B0CD087
:103F20007B6A5A01FB69134403F530631A46082380
:103F30009360796A786800F079FF3B6903F01003B9
:103F4000002B08D07B6A5A01FB69134403F53063E8
:103F50001A46102393603B6903F00203002B30D014
:103F60003B6A5B6903F08003802B09D1FB6903F591
:103F700000635B68FA6902F5006243F48063536092
:103F80007A6A1346DB0013449B0003F514737A68C6
:103F9000134404337B617B69DB78012B08D17B6997
:103FA0000022DA707B6ADBB21946786811F0AEFF46
:103FB0007B6A5A01FB69134403F530631A460223F6
:103FC00093603B6903F02003002B08D07B6A5A0101
:103FD000FB69134403F530631A46202393603B6961
:103FE00003F40053002B09D07B6A5A01FB69134488
:103FF00003F530631A464FF4005393607B6A013334
:104000007B62BB6A5B08BB62BB6A002B7FF462AF5A
:104010007B681B68184602F0A7F9034603F4802367
:10402000B3F5802F40F0DB807B681B68184602F0F8
:10403000C8F9B86200237B62CDE0BB6A03F00103DC
:10404000002B00F0C2807B681B687A6AD2B21146EE
:10405000184602F0EEF938613B6903F00103002BCA
:1040600057D07B6A03F00F03012202FA03F3FB60CF
:10407000FB6903F500635A6BFB68DB43F96901F5E3
:10408000006113404B637B6A5A01FB69134403F5DB
:1040900010631A46012393607B689B79012B32D110
:1040A00079687A6A1346DB0013449B000B44203383
:1040B000196878687A6A1346DB0013449B0003444E
:1040C0001C331B68194478687A6A1346DB00134472
:1040D0009B000344203319607B6A002B13D179685D
:1040E0007A6A1346DB0013449B000B4424331B689D
:1040F000002B08D17B6818687B6803F29C431A4642
:10410000012102F0F5F97B6ADBB21946786811F0FB
:1041100078FE3B6903F00803002B08D07B6A5A0144
:10412000FB69134403F510631A46082393603B6947
:1041300003F01003002B08D07B6A5A01FB6913447B
:1041400003F510631A46102393603B6903F04003A4
:10415000002B08D07B6A5A01FB69134403F51063F6
:104160001A46402393603B6903F00203002B23D0DF
:10417000796A386A01F0DCF97A6A1346DB00134485
:104180009B0010337A68134404337B617B69DB78CE
:10419000012B08D17B690022DA707B6ADBB21946F9
:1041A000786811F0C5FE7B6A5A01FB69134403F578
:1041B00010631A46022393603B6903F08003002BCF
:1041C00003D0796A786800F0BDFC7B6A01337B62BA
:1041D000BB6A5B08BB62BB6A002B7FF42EAF7B68B7
:1041E0001B68184602F0C0F8034603F00043B3F121
:1041F000004F22D1FB6903F500635B68FA6902F5A1
:10420000006223F0010353607B6893F8CC34012BE8
:1042100008D17B68002283F8CC240021786800F064
:10422000A3FE02E0786811F063FE7B681B685A69A0
:104230007B681B6802F000425A617B681B68184665
:1042400002F092F8034603F40063B3F5006F12D155
:10425000FB6903F500639B6803F00103012B02D1A6
:10426000786811F01FFE7B681B685A697B681B68C1
:1042700002F400625A617B681B68184602F074F809
:10428000034603F48053B3F5805F40F0B780FB69C9
:1042900003F500635B68FA6902F5006223F001032D
:1042A00053607B681B681021184601F041F9002318
:1042B000FB6246E0FB6A5A01FB69134403F5106395
:1042C0001A464FF67F339360FB6A5A01FB69134429
:1042D00003F510631B68FA6A5101FA690A4402F592
:1042E000106223F400131360FB6A5A01FB69134444
:1042F00003F530631A464FF67F339360FB6A5A0129
:10430000FB69134403F530631B68FA6A5101FA69CB
:104310000A4402F5306223F400131360FB6A5A0169
:10432000FB69134403F530631B68FA6A5101FA69AB
:104330000A4402F5306243F000631360FB6A013304
:10434000FB627B681B791A46FB6A9342B2D3FB6916
:1043500003F50063DB69FA6902F5006243F00113BB
:10436000D3617B68DB7B002B16D0FB6903F5006310
:10437000D3F88430FA6902F5006243F00B03C2F807
:104380008430FB6903F500635B6CFA6902F5006237
:1043900043F00B03536415E0FB6903F500635B69AD
:1043A000FA6902F5006243F4005343F02B035361B2
:1043B000FB6903F500631B69FA6902F5006243F0CB
:1043C0000B031361FB6903F500631B68FA6902F5CF
:1043D000006223F4FE6313607B6818687B68997938
:1043E0007B6803F29C431A4602F082F87B681B68E4
:1043F0005A697B681B6802F480525A617B681B68AB
:10440000184601F0B1FF034603F40053B3F5005F13
:1044100023D17B681B68184602F047F87B681B684D
:10442000184601F0FEF803461A467B68DA717B688D
:104430001C6802F057FD01467B68DB791A4620466E
:1044400000F002FE786811F004FD7B681B685A6971
:104450007B681B6802F400525A617B681B6818462F
:1044600001F082FF034603F00803082B0AD17868A5
:1044700011F0E1FC7B681B685A697B681B6802F0DD
:1044800008025A617B681B68184601F06DFF0346FD
:1044900003F08003802B23D13B6A9B6923F08002C9
:1044A0003B6A9A6101237B6214E079687A6A134659
:1044B000DB0013449B000B4403F257231B78012BB2
:1044C00005D17B6ADBB21946786800F00AFB7B6A8B
:1044D00001337B627B681B791A467B6A9342E4D383
:1044E0007B681B68184601F03FFF034603F4801306
:1044F000B3F5801F3CD101237B622BE07B6A5A011C
:10450000FB69134403F510631B68BB6179687A6A21
:104510001346DB0013449B000B4418331B78012B1C
:1045200015D1BB69002B12DA79687A6A1346DB0071
:1045300013449B000B44173301221A707B6ADBB2D1
:1045400063F07F03DBB21946786800F0CAFA7B6A31
:1045500001337B627B681B791A467B6A9342CDD319
:104560007B681B685A697B681B6802F480125A6179
:104570007B681B68184601F0F7FE034603F400133E
:10458000B3F5001F56D101237B6245E07B6A5A01D7
:10459000FB69134403F530631B68BB6179687A6A71
:1045A0001346DB0013449B000B4403F516731B7882
:1045B000012B2ED1BB69002B2BDABB691A0C7B684F
:1045C000D3F8D434534003F00103002B21D1796890
:1045D0007A6A1346DB0013449B000B4403F2572313
:1045E00001221A703B6A9B6943F080023B6A9A6120
:1045F0003B6A5B6903F08003002B0AD1FB6903F57A
:1046000000635B68FA6902F5006243F4007353606B
:1046100008E07B6A01337B627B681B791A467B6A00
:104620009342B3D37B681B685A697B681B6802F4AA
:1046300000125A617B681B68184601F095FE03461C
:1046400003F08043B3F1804F0AD1786811F082FC07
:104650007B681B685A697B681B6802F080425A615C
:104660007B681B68184601F07FFE034603F00403D5
:10467000042B15D17B681B685B68BB61BB6903F0C9
:104680000403002B02D0786811F072FC7B681B6871
:1046900059687B681B68BA690A435A6000E000BF2A
:1046A0003437BD4690BD80B582B000AF78600B4610
:1046B000FB707B6893F89434012B01D1022312E044
:1046C0007B68012283F894247B68FA785A747B68AB
:1046D0001B68FA781146184601F0DEFD7B6800225F
:1046E00083F89424002318460837BD4680BD80B562
:1046F00084B000AF7860084611461A460346FB7046
:104700000B463B801346BB700023FB7297F90330C6
:10471000002B0FDAFB7803F00F021346DB00134483
:104720009B0010337A6813440433FB60FB6801225A
:104730005A700FE0FB7803F00F021346DB001344BE
:104740009B0003F514737A6813440433FB60FB6821
:1047500000225A70FB7803F00F03DAB2FB681A707C
:104760003B88C3F30A02FB689A60FB68BA781A7147
:10477000FB685B78002B04D0FB681B781A46FB684B
:104780005A83BB78022B02D1FB6800225A717B68E6
:1047900093F89434012B01D102230EE07B680122AF
:1047A00083F894247B681B68F968184600F05EFF64
:1047B0007B68002283F89424FB7A18461037BD46A4
:1047C00080BD80B584B000AF78600B46FB7097F970
:1047D0000330002B0FDAFB7803F00F021346DB00E7
:1047E00013449B0010337A6813440433FB60FB6866
:1047F00001225A700FE0FB7803F00F021346DB0032
:1048000013449B0003F514737A6813440433FB606C
:10481000FB6800225A70FB7803F00F03DAB2FB68E2
:104820001A707B6893F89434012B01D102230EE0B7
:104830007B68012283F894247B681B68F96818461A
:1048400000F09CFF7B68002283F894240023184624
:104850001037BD4680BD80B586B000AFF8607A6085
:104860003B600B46FB72FB7A03F00F021346DB0042
:1048700013449B0003F51473FA68134404337B61FB
:104880007B697A68DA607B693A681A617B69002221
:104890005A617B6900225A70FB7A03F00F03DAB287
:1048A0007B691A70FB689B79012B02D17A687B695E
:1048B000DA61FB681868FB689B791A46796901F030
:1048C00039F8002318461837BD4680BD80B483B040
:1048D00000AF78600B46FB70FB7803F00F0279683D
:1048E0001346DB0013449B000B4403F51A731B684B
:1048F00018460C37BD465DF8047B704780B586B01E
:1049000000AFF8607A603B600B46FB72FB7A03F005
:104910000F021346DB0013449B001033FA68134464
:1049200004337B617B697A68DA607B693A681A6173
:104930007B6900225A617B6901225A70FB7A03F07D
:104940000F03DAB27B691A70FB689B79012B02D1E5
:104950007A687B69DA61FB681868FB689B791A469C
:10496000796900F0E7FF002318461837BD4680BD7F
:1049700080B584B000AF78600B46FB70FB7803F025
:104980000F037A681279934201D901234FE097F916
:104990000330002B0FDAFB7803F00F021346DB0025
:1049A00013449B0010337A6813440433FB60FB68A4
:1049B00001225A700DE0FA781346DB0013449B0085
:1049C00003F514737A6813440433FB60FB68002218
:1049D0005A70FB6801229A70FB7803F00F03DAB279
:1049E000FB681A707B6893F89434012B01D1022381
:1049F0001DE07B68012283F894247B681B68F968BA
:104A0000184601F075FBFB7803F00F03002B09D16A
:104A10007B6818687B6899797B6803F29C431A4627
:104A200001F066FD7B68002283F894240023184679
:104A30001037BD4680BD80B584B000AF78600B46AE
:104A4000FB70FB7803F00F037A681279934201D967
:104A5000012342E097F90330002B0FDAFB7803F0D3
:104A60000F021346DB0013449B0010337A68134493
:104A70000433FB60FB6801225A700FE0FB7803F0FF
:104A80000F021346DB0013449B0003F514737A688E
:104A900013440433FB60FB6800225A70FB68002259
:104AA0009A70FB7803F00F03DAB2FB681A707B6828
:104AB00093F89434012B01D102230EE07B6801228C
:104AC00083F894247B681B68F968184601F07EFB24
:104AD0007B68002283F89424002318461037BD46D3
:104AE00080BD80B584B000AF78600B46FB7097F94D
:104AF0000330002B0CDAFB7803F00F021346DB00C7
:104B000013449B0010337A6813440433FB600CE0B9
:104B1000FB7803F00F021346DB0013449B0003F500
:104B200014737A6813440433FB607B681B68F9686C
:104B3000184601F09DF90346FB72FB7A18461037C0
:104B4000BD4680BD80B58AB002AF786039607B68B1
:104B50001B687B617B693B613A681346DB00134449
:104B60009B0010337A6813440433FB60FB685A6976
:104B7000FB681B699A4201D901236BE0FB681A6943
:104B8000FB685B69D31AFB61FB689B68FA699A4210
:104B900002D9FB689B68FB61FB6903339B08BB611F
:104BA0002AE0FB681A69FB685B69D31AFB61FB6842
:104BB0009B68FA699A4202D9FB689B68FB61FB69B2
:104BC00003339B08BB61FB68D9683B68DAB2FB69B9
:104BD00098B27B689B7900930346786901F0F2F9FB
:104BE000FB68DA68FB691A44FB68DA60FB685A699B
:104BF000FB691A44FB685A613B685A013B691344DC
:104C000003F510639B699BB2BA699A4209D8FB68A5
:104C10005A69FB681B699A4203D2FB681B69002B27
:104C2000BFD1FB681A69FB685B699A4211D83B687F
:104C300003F00F03012202FA03F3BB603B6903F5A3
:104C400000635A6BBB68DB43396901F500611340AF
:104C50004B63002318462037BD4680BD80B588B021
:104C600000AF786039607B681B68FB61FB69BB61E2
:104C7000FB693C3304331B687B613B685A01BB69A9
:104C8000134403F530639B683B617B689B79012B80
:104C90007BD13B6903F00803002B15D07B69614A87
:104CA000934240F2B9803B6903F40043002B00F0CB
:104CB000B3803B685A01BB69134403F530631A465D
:104CC0004FF400439360A7E03B6903F02003002BFF
:104CD00009D03B685A01BB69134403F530631A4697
:104CE0002023936098E03B6903F02803002B40F0F9
:104CF00093807B694B4A93420FD93B6903F400438D
:104D0000002B0AD03B685A01BB69134403F530639A
:104D10001A464FF4004393607EE03A681346DB0086
:104D200013449B0003F514737A6813440433FB6047
:104D3000FB681A6A3B685901BB690B4403F5306391
:104D40001B69C3F31203D21AFB685A613B68002B3C
:104D500014D1FB681B69002B09D17B6818687B683C
:104D600003F29C431A46012101F0C2FB06E0FB68F6
:104D7000DA68FB685B691A44FB68DA603B68DBB29F
:104D80001946786811F022F846E07B69264A93427A
:104D900024D13B6903F40043002B0AD03B685A013D
:104DA000BB69134403F530631A464FF40043936024
:104DB00032E03B6903F02003002B08D03B685A0126
:104DC000BB69134403F530631A46202393603B68A4
:104DD000DBB21946786810F0F9FF1DE03B68002B44
:104DE00014D179683A681346DB0013449B000B44E6
:104DF00003F519731B68002B08D17B6818687B6862
:104E000003F29C431A46002101F072FB3B68DBB2BF
:104E10001946786810F0DAFF002318462037BD469F
:104E200080BD00BF0A30544F0A31544F80B586B060
:104E300000AF786039607B681B687B617B693B6190
:104E40007B693C3304331B68FB603B685A013B6958
:104E5000134403F530639B68BB60FB68154A9342BB
:104E60000ED9BB6803F40043002B09D03B685A01FC
:104E70003B69134403F530631A464FF400439360D3
:104E8000786810F091FFFB680A4A93420CD97B685E
:104E90009B79012B08D17B6818687B6803F29C43DF
:104EA0001A46012101F024FB002318461837BD469D
:104EB00080BD00BF0A30544F80B485B000AF786029
:104EC0000B46FB7013463B807B681B685B6ABB60CC
:104ED000FB78002B07D13B8819047B681B68BA68F4
:104EE0000A439A6228E07B681B689B6A1B0CBA68BD
:104EF0001344BB600023FB730DE07B681A68FB7BE7
:104F000040339B0013445B681B0CBA681344BB60BE
:104F1000FB7B0133FB73FA7BFB78013B9A42ECD3BA
:104F20003B8818047B681968FB78013BBA68024328
:104F300040339B000B445A60002318461437BD468B
:104F40005DF8047B704780B483B000AF78600B4697
:104F50007B807B681B687A885A62002318460C376E
:104F6000BD465DF8047B704780B483B000AF7860C5
:104F70000B46FB7000BF0C37BD465DF8047B7047E5
:104F800084B080B584B000AF786007F11C0080E881
:104F90000E0097F82130012B23D17B689B6B23F403
:104FA00080327B689A637B68DB6823F4840323F098
:104FB00040037A68D3607B68DB6823F440127B6827
:104FC000DA6097F82830012B05D17B68DB6843F461
:104FD00080127B68DA60786801F0E8FA0346FB73B8
:104FE0001BE07B68DB6843F040027B68DA6078682E
:104FF00001F0DCFA0346FB7397F82530002B06D14D
:105000007B689B6B43F480327B689A6305E07B6826
:105010009B6B23F480327B689A63BB7F012B0BD19F
:105020007B689B6843F006027B689A607B689B689C
:1050300043F020027B689A60FB7B18461037BD4620
:10504000BDE8804004B0704780B487B000AFF8601E
:10505000B9601346FB71FB79022B65D1BB68414AED
:10506000934206D9BB68404A934202D20F237B6128
:1050700062E0BB683C4A934206D3BB683B4A93421A
:1050800002D20E237B6157E0BB68384A934206D3B5
:10509000BB68374A934202D20D237B614CE0BB6868
:1050A000334A934206D3BB68324A934202D80C2358
:1050B0007B6141E0BB682F4A934206D9BB682E4A08
:1050C000934202D80B237B6136E0BB682A4A9342A5
:1050D00006D9BB68294A934202D80A237B612BE098
:1050E000BB68264A934206D9BB68254A934202D23E
:1050F00009237B6120E0BB68214A934206D3BB6849
:10510000204A934202D808237B6115E0BB681D4A00
:10511000934206D9BB681C4A934202D207237B61A3
:105120000AE006237B6107E0FB79002B02D109230B
:105130007B6101E009237B61FB68DB6823F470522B
:10514000FB68DA60FB68DA687B699B0203F47053E2
:105150001A43FB68DA60002318461C37BD465DF829
:10516000047B7047BFACD800C0E1E4000024F40029
:10517000807306019F491A01FF2C31013FA44C01A5
:1051800000366E011FABA6010048E80180B483B071
:1051900000AF78607B689B6843F001027B689A608F
:1051A000002318460C37BD465DF8047B704780B479
:1051B00083B000AF78607B689B6823F001027B6856
:1051C0009A60002318460C37BD465DF8047B704793
:1051D00080B584B000AF78600B46FB700023FB60A5
:1051E0007B68DB6823F0C0427B68DA60FB78012BC8
:1051F00015D17B68DB6843F000527B68DA600A20D7
:1052000002F062FEFB680A33FB60786801F03FF948
:105210000346012B1ED0FB68C72BF0D91AE0FB78A0
:10522000002B15D17B68DB6843F080427B68DA6035
:105230000A2002F049FEFB680A33FB60786801F03F
:1052400026F90346002B05D0FB68C72BF0D901E0F7
:10525000012305E0FB68C82B01D1012300E00023F6
:1052600018461037BD4680BD84B080B586B000AF0B
:10527000786007F1240080E80E000023FB757B684E
:10528000FB6000233B6109E07A683B6940339B0087
:10529000134400225A603B6901333B613B690E2B8A
:1052A000F2D997F82E30002B1CD1FB6803F5006370
:1052B0005B68FA6802F5006243F0020353607B68A2
:1052C0009B6B43F400127B689A637B689B6B23F4AF
:1052D00000227B689A637B689B6B23F480227B6847
:1052E0009A630BE07B689B6B23F400127B689A63E4
:1052F0007B689B6B43F400227B689A63FB6803F531
:1053000060631A460023136097F82930012B0DD1F2
:1053100097F82730002B04D10021786800F068F955
:1053200008E00121786800F063F903E00321786860
:1053300000F05EF91021786800F0FAF80346002BBF
:1053400001D00123FB75786800F024F90346002B97
:1053500001D00123FB75FB6803F500631A460023A7
:105360001361FB6803F500631A4600235361FB6871
:1053700003F500631A460023D36100233B6143E039
:105380003B695A01FB68134403F510631B6803F083
:105390000043B3F1004F18D13B69002B0AD13B69A0
:1053A0005A01FB68134403F510631A464FF000637B
:1053B000136013E03B695A01FB68134403F5106363
:1053C0001A464FF09043136008E03B695A01FB68AE
:1053D000134403F510631A46002313603B695A0116
:1053E000FB68134403F510631A46002313613B69FD
:1053F0005A01FB68134403F510631A464FF67F33D6
:1054000093603B6901333B6197F824301A463B694E
:105410009342B5D300233B6143E03B695A01FB68EB
:10542000134403F530631B6803F00043B3F1004FEE
:1054300018D13B69002B0AD13B695A01FB68134420
:1054400003F530631A464FF00063136013E03B69C5
:105450005A01FB68134403F530631A464FF090433A
:10546000136008E03B695A01FB68134403F530639D
:105470001A46002313603B695A01FB68134403F585
:1054800030631A46002313613B695A01FB681344D9
:1054900003F530631A464FF67F3393603B6901335F
:1054A0003B6197F824301A463B699342B5D3FB68B9
:1054B00003F500631B69FA6802F5006223F4807348
:1054C00013617B6800229A617B686FF080425A61A9
:1054D00097F82630002B05D17B689B6943F01002BA
:1054E0007B689A617B689A69104B13437A68936171
:1054F00097F82A30002B05D07B689B6943F008029F
:105500007B689A6197F82E30012B07D17B689B69E5
:1055100043F0804343F004037A689361FB7D1846AF
:105520001837BD46BDE8804004B0704700383C8065
:1055300080B485B000AF786039600023FB60FB6801
:105540000133FB60FB68B3F1706F01D903231BE0EB
:105550007B681B69002BF2DA0023FB603B689B0130
:1055600043F020027B681A61FB680133FB60FB6833
:10557000B3F1706F01D9032306E07B681B6903F068
:105580002003202BF0D0002318461437BD465DF8C9
:10559000047B704780B485B000AF78600023FB6067
:1055A000FB680133FB60FB68B3F1706F01D9032323
:1055B00018E07B681B69002BF2DA0023FB607B6834
:1055C00010221A61FB680133FB60FB68B3F1706F56
:1055D00001D9032306E07B681B6903F01003102B3D
:1055E000F0D0002318461437BD465DF8047B7047A1
:1055F00080B485B000AF78600B46FB707B68FB60C1
:10560000FB6803F500631A68FB78F96801F500612F
:1056100013430B60002318461437BD465DF8047B26
:10562000704780B487B000AF78607B683B613B69AE
:1056300003F500639B6803F00603FB60FB68002B27
:1056400002D10023FB750AE0FB68022B02D0FB6845
:10565000062B02D10223FB7501E00F23FB75FB7DB6
:1056600018461C37BD465DF8047B704780B485B092
:1056700000AF786039607B68FB603B681B78BB607B
:105680003B685B78012B3AD1FB6803F50063DA696C
:105690003B681B7803F00F03012101FA03F39BB26F
:1056A000F96801F500611343CB61BB685A01FB68DF
:1056B000134403F510631B6803F40043002B55D11A
:1056C000BB685A01FB68134403F510631A683B6812
:1056D0009B68C3F30A013B681B799B041943BB68B1
:1056E0009B050B431343BA685101FA680A4402F55B
:1056F000106243F0805343F40043136036E0FB68CC
:1057000003F50063DA693B681B7803F00F0301219E
:1057100001FA03F31B04F96801F500611343CB613F
:10572000BB685A01FB68134403F530631B6803F43C
:105730000043002B1AD1BB685A01FB68134403F5E0
:1057400030631A683B689B68C3F30A013B681B79A6
:105750009B040B431343BA685101FA680A4402F5EB
:10576000306243F0805343F4004313600023184633
:105770001437BD465DF8047B7047000080B485B0E7
:1057800000AF786039607B68FB603B681B78BB606A
:105790003B685B78012B61D1BB685A01FB681344FD
:1057A00003F510631B6803F00043B3F1004F1FD1F2
:1057B000BB685A01FB68134403F510631B68BA68A1
:1057C0005101FA680A4402F5106243F00063136065
:1057D000BB685A01FB68134403F510631B68BA6881
:1057E0005101FA680A4402F5106243F080431360E5
:1057F000FB6803F50063DA6B3B681B7803F00F036B
:10580000012101FA03F39BB2DB43F96801F5006162
:105810001340CB63FB6803F50063DA693B681B78D0
:1058200003F00F03012101FA03F39BB2DB43F96894
:1058300001F500611340CB61BB685A01FB6813445A
:1058400003F510631A68BB685901FB680B4403F544
:1058500010631946354B13400B6060E0BB685A017A
:10586000FB68134403F530631B6803F00043B3F196
:10587000004F1FD1BB685A01FB68134403F5306326
:105880001B68BA685101FA680A4402F5306243F0B5
:1058900000631360BB685A01FB68134403F530636F
:1058A0001B68BA685101FA680A4402F5306243F095
:1058B00080431360FB6803F50063DA6B3B681B7879
:1058C00003F00F03012101FA03F31B04DB43F96822
:1058D00001F500611340CB63FB6803F50063DA69EF
:1058E0003B681B7803F00F03012101FA03F31B044B
:1058F000DB43F96801F500611340CB61BB685A01D5
:10590000FB68134403F530631A68BB685901FB68F0
:105910000B4403F530631946054B13400B6000231D
:1059200018461437BD465DF8047B7047007833ECA9
:105930000078F3EF80B58AB002AFF860B960134623
:10594000FB71FB68FB61BB681B78BB61BB685B7864
:10595000012B40F07F81BB681B69002B32D1BB69F2
:105960005A01FB69134403F510631B69BA695101BD
:10597000FA690A4402F5106223F0FF5323F4C013BE
:105980001361BB695A01FB69134403F510631B697A
:10599000BA695101FA690A4402F5106243F400231E
:1059A0001361BB695A01FB69134403F510631B695A
:1059B000BA695101FA690A4402F51062DB0CDB0492
:1059C000136197E0BB695A01FB69134403F5106347
:1059D0001B69BA695101FA690A4402F51062DB0CCD
:1059E000DB041361BB695A01FB69134403F51063BF
:1059F0001B69BA695101FA690A4402F5106223F081
:105A0000FF5323F4C0131361BB69002B1AD1BB6889
:105A10001A69BB689B689A4203D9BB689A68BB68DD
:105A20001A61BB695A01FB69134403F510631B69D2
:105A3000BA695101FA690A4402F5106243F400237D
:105A4000136144E0BB681A69BB689B6813445A1E23
:105A5000BB689B68B2FBF3F3FB82BB695A01FB692D
:105A6000134403F510631A69FB8AD904A44B0B4055
:105A7000B9694801F969014401F5106113430B61EB
:105A8000BB681B79012B22D1BB695A01FB69134406
:105A900003F510631B69BA695101FA690A4402F5FA
:105AA000106223F0C0431361BB695A01FB691344C0
:105AB00003F510631A69FB8A5B0703F0C043B969F9
:105AC0004801F969014401F5106113430B61BB6999
:105AD0005A01FB69134403F510631A69BB681B691B
:105AE000C3F31203B9694801F969014401F5106172
:105AF00013430B61FB79012B4BD1BB68DB69002B96
:105B000009D0BB695A01FB69134403F510631A46B7
